:020000022000DC
:1060000000000120756302005D6302005F6302000F
:106010006163020063630200656302000000000028
:1060200000000000000000000000000067630200A4
:1060300069630200000000006B6302006D630200F0
:106040006F6302006F630200A5C102006F6302006C
:106050006F6302006F6302006F6302006F630200F0
:106060006F6302006F6302006F6302006F630200E0
:106070006F6302006F6302006F6302006F630200D0
:106080006F630200657C02006F6302006F630200B1
:106090006F6302006F63020031DC02006F63020075
:1060A0006F6302006F6302006F6302006F630200A0
:1060B0006F6302006F630200000000000000000038
:1060C0006F6302006F6302006F6302006F63020080
:1060D0006F6302006F6302006F6302000000000044
:1060E00000000000000000000000000000000000B0
:1060F00000000000000000000000000000000000A0
:10610000000000000000000000000000000000008F
:10611000000000000000000000000000000000007F
:10612000000000000000000000000000000000006F
:10613000000000000000000000000000000000005F
:10614000000000000000000000000000000000004F
:10615000000000000000000000000000000000003F
:10616000000000000000000000000000000000002F
:10617000000000000000000000000000000000001F
:10618000000000000000000000000000000000000F
:1061900000000000000000000000000000000000FF
:1061A00000000000000000000000000000000000EF
:1061B00000000000000000000000000000000000DF
:1061C00000000000000000000000000000000000CF
:1061D00000000000000000000000000000000000BF
:1061E00000000000000000000000000000000000AF
:1061F000000000000000000000000000000000009F
:10620000354936480A1A02D0072291438D4634494F
:1062100034480A1A06D00722914381F309880222E2
:1062200082F3148830483149314A00F044F831484B
:106230003149324A00F03FF831483249324A00F0E1
:106240003AF832483249334A00F035F83248334997
:10625000334A00F030F833483349344A00F02BF821
:1062600033483449344A00F026F83448344900228F
:1062700000F02CF833483449002200F027F8334866
:106280003349091A082902DB002202604160314AC1
:1062900090471F481F49884205D00268043003B464
:1062A000904703BCF7E700208646EC46002000211B
:1062B000294A9047FEE7884207D0521A05D0037852
:1062C00001300B700131013AF9D17047884202D098
:1062D00002700130FAE770470000012000C0002082
:1062E0000000012000000120C8100300342300201A
:1062F00018240020D0630200D063020032E60200BE
:10630000C81003003423002034230020BCE802001E
:10631000BCE80200BCE80200BCE80200BCE80200E5
:10632000BCE80200BCE80200BCE80200C8100300A0
:10633000AC11030018240020182400201824002089
:106340005F31002060310020643100206431002082
:10635000643300209D630200B9D40200FEE7FEE72B
:10636000FEE7FEE7FEE7FEE7FEE7FEE7FEE7FEE705
:1063700000F002B8FFF7FCBF0F484FF00701884359
:1063800085460E4880470E48016841F4700101605F
:10639000BFF34F8FBFF36F8FFFF732BF09480A4932
:1063A0000A4A884207D0521A05D0037801300B7090
:1063B0000131013AF9D1704700000120E9D702000C
:1063C00088ED00E0D8E702005022002034230020AE
:1063D0000048704758310020F0B595B01C4616466D
:1063E00008460D4605F086FB1A9B0D93CDE908641F
:1063F00000242346082205A928460A948DF82C403B
:106400000C9405F094FB079B0293069B03939DF865
:1064100014308DF8114003F00302012A1DD1BDF89C
:106420001440059EC3F3C203C4F383148DF81030E7
:10643000A20008230EA9284605F079FBC6F395268D
:1064400008AB0093224602AB0EA9304600F0BAFF1B
:10645000284605F053FB15B0F0BD022AF8D1BDF86F
:106460001640C3F3C203A4098DF810300827082C86
:10647000264628BF08263B4632460EA9284605F088
:1064800056FBA41B08AB02AA31460EA8374400F005
:10649000FDFF002CEBD1DBE7014B01221A707047A6
:1064A000592400207047000070B50E4D06460FCDF0
:1064B00088B06C460FC495E80F00002E84E80F00EA
:1064C0004FF00603084A0948009308BF00226946B6
:1064D00005F02CFE08B101F033F8054B1E7008B032
:1064E00070BD00BFBCE802009964020034230020A4
:1064F0001824002007B5044B0093044A4023FFF7FB
:106500006BFF03B05DF804FB116502001924002045
:1065100038B50D4B0D4D002018700D4804782D5DD9
:10652000D2B21C4665B1043006F036FB08B101F06A
:1065300007F8084B1A7812B12378002BFBD038BD2E
:106540000C3006F06FF8F1E7592400203C2C0020B5
:10655000342300201824002008B50848084A03788E
:10656000D35C3BB1043006F0A1FA0020BDE808403E
:10657000FFF79ABF0C3005F0F1FFF6E73423002057
:106580003C2C002000230428CB604B6098BF044BB8
:10659000044A98BF53F820308A600B60704700BFF0
:1065A0002CEB020008EB0200CB6800225A71704706
:1065B000C368DB6800225A717047CB6801225A71A8
:1065C0007047C368DB6801225A7170470D4A8A60C0
:1065D00070B50D4A0D4C0023121BCB604B600B6055
:1065E00012091D469A4207D0E6683679FF2E05D07B
:1065F000854202D1A3680B6070BD013501331034B0
:10660000F0E700BF40EB0200A0E7020080E70200D5
:106610002DE9F74F164D174C52F8047C0193641B7B
:1066200006468946924624094FF00008444508D1A1
:10663000114A3B460221304603B0BDE8F04F03F05B
:106640007DB8A968384607F09DFFAB46103510B1FC
:1066500008F10108EAE7DDED017A17EE90CA53462A
:106660004A465946304603B0BDE8F04F604700BF88
:1066700080E70200A0E7020078EC0200014BFFF780
:10668000C7BF00BF616C0200014BFFF7C1BF00BF75
:10669000A9650200014BFFF7BBBF00BFBB6502004D
:1066A000014BFFF7B5BF00BF996A0200037813F0F2
:1066B000040216D003F00303012B03D0022B09D0F0
:1066C000012070470A6800880232C0F38310024438
:1066D0000A60F5E70B684288023303EB92130B6004
:1066E000EEE71046704700002DE9F04F87B0002319
:1066F0000446851C0DF107000F4690468DF80730C3
:1067000001F01CF9454806683E60D0E901321344A7
:1067100001339B1B824600F21C4600F5836900F2A0
:106720001447AB421BD30022B8F1000F70D00523F1
:1067300063F3070264F38912DAF80010DAF808301C
:106740009DF807000B4003330D444AF82320CAF894
:10675000005001F017F9012007B0BDE8F08F0121CA
:10676000304602F0F6FA484602F00CFB384602F0DA
:1067700009FBDAF80400DAF808B0029000EA0B002E
:1067800003300AEB800002A9FFF790FF029B50BB89
:106790000BEA03020AEB820203F1020CD2680392B5
:1067A000013303EA0B0B0AEB8B0B02F00302012A05
:1067B000CDF808C0DBF80C1022D0022A16D0834690
:1067C000384602F0E2FA10B1029BCAF8043059468A
:1067D000304602F0BEFADAE901231344DAF8002069
:1067E00001339B1A9DE70BEA0300C9E7BDF80E30A1
:1067F0009B0903334FEA114B0CEB93030293DFE742
:10680000BDF80C30C3F383134FEA114B6344F5E733
:10681000062363F3070264F39F528DE72C250020C3
:10682000012907B5034604D08168D1F848118907CA
:1068300007D500221146184603B05DF804EB03F0BB
:10684000CFBF53680193054B00931368044A02219C
:1068500002F074FF03B05DF804FB00BFF2E8020031
:10686000E8E802002DE9F3478368D3F84841C4F310
:106870004004074634B10022114602B0BDE8F0479B
:1068800003F0AEBF144E154DDFF85880DFF8589076
:10689000DFF858A0AD1B2D09AC4202D102B0BDE813
:1068A000F087F268B3681179FF2907D10C4A0821F3
:1068B000384602F043FF01341036EDE75279002AE2
:1068C00014BF42464A46CDE90021384652460821C7
:1068D00002F034FFEFE700BF80E70200A0E702000C
:1068E00018E9020007E902000FE9020037E9020097
:1068F00030B50A4B0A4A0B49D21AD20800239A42F1
:1069000001D1052006E031F823500468A54202D1E8
:106910000360002030BD0133F1E700BFE0E6020074
:1069200078E702009C2200202DE9F84F224B2348F3
:10693000FF229A600022C3F81824C3E90022C3F89A
:10694000142483F8202405F08EF8814688B91C4869
:106950001C4E1D4CDFF87CA005F02DFAA41BE408AA
:106960004D46A54208D10023184A19481946A342AA
:106970001BD14846BDE8F88F4FF00008474606EBAC
:10698000C50BBD420AD0142256F83710DBF80000C0
:1069900007F005FD0028C8BF08F101080137BC4217
:1069A000EFD12AF825800135DBE720F8231042F8E3
:1069B000041B0133DBE700BF2C250020A0E7020009
:1069C000FCEA0200E0E6020078E70200E82200208C
:1069D0009E2200209C22002007B5019031B9019A27
:1069E000064B53F8320003B05DF804FB01A8FFF733
:1069F0007FFF0028F3D00020F5E700BFE0E60200AB
:106A0000002310B5CB604B60034B8B600C4601211B
:106A1000FFF7E2FF206010BD08EB0200094B0139CF
:106A200003EBC000032909D8DFE801F00A020406DD
:106A30000420704700797047407970470020704704
:106A400002207047E0E6020030B5114C00EB400038
:106A500054F821508240072383406A401A400D4B6E
:106A60006A40C2F3821044F8212003EB8101C2F393
:106A7000C203834238BF0346C2F34220834202F07E
:106A8000070238BF03469A4238BF1A464A8030BDD3
:106A9000E82200209C2200202DE9F74F06461D46E3
:106AA0009046002A4FD0CB6828684B4993F8049051
:106AB000072207F074FCD0B9B8F1010F07D1474A9B
:106AC0000221304603B0BDE8F04F02F037BE444F1C
:106AD00004460A2257F8041B686807F060FC002887
:106AE00073D00134052CF4D16B683E4A13E00822C0
:106AF0003D49286807F053FC58B9B8F1010F044626
:106B00002AD00127394A3A4B9B1A4FEAD30A9346B7
:106B100045E02B68374A0221304603B0BDE8F04F0C
:106B200002F00CBE18F83530A3420FD200212846DF
:106B3000FFF752FF524603460221304602F0FEFDA7
:106B40000135BD42EED103B0BDE8F08F22462946A3
:106B50004846FFF779FFF3E7244B254FDFF89CA069
:106B6000FF1AFF08002503F10608EAE7184600218E
:106B70000193FFF731FF0099202207F010FC019BE1
:106B8000014608B1013310E00BEBC3029279A24237
:106B900015D3224619464846FFF756FF01374745A9
:106BA000D1D255F82730009300239A45DED155F80D
:106BB0002730114A0221304602F0C0FDEEE71846A8
:106BC000FFF70AFF0D4A0346F4E7B8F1020FE4B2FB
:106BD000C2D0022796E700BFD1E90200D8E902003F
:106BE00018EB020043EA0200EFE90200E0E60200CF
:106BF00078E70200F7E902002FEA02000CEA02003F
:106C000013460A46C168FFF747BF000013B50446A4
:106C10000191A3B162B9019A0F4B04EB4404072020
:106C200053F82230A0401840E040C0B202B010BD7E
:106C300001A8FFF75DFE0028EDD00020F6E72AB995
:106C4000019A064B03EBC2039879EFE701A8FFF71F
:106C50004FFE0028F1D1F3E7E8220020E0E6020031
:106C6000284B294A2DE9F04F9B1A4FEAD309CB68EC
:106C70005B7985B005460E461BB9244A022102F015
:106C80005DFD234B234A244F0821284602F056FD80
:106C9000224A0821284602F051FD00244C4502D129
:106CA00005B0BDE8F08FF36893F8048001231A461D
:106CB00021464046FFF7AAFF0122214683460023D2
:106CC0004046FFF7A3FF0328034628BF03235FFACC
:106CD00083FA804601212046FFF77EFE57F82A30CE
:106CE00001930F4A0F4B57F82B100091D04598BFD6
:106CF000134602930C4A03460821284602F01EFD63
:106D00000134CBE778E70200E0E6020062EA020025
:106D100075EA020081EA020018EB02009FEA020015
:106D20005AF5020060EA0200DCEA020013460A4655
:106D3000C168FFF795BF0000034BD3E90030C31AC9
:106D400058425841704700BF2C2500202DE9F04FD4
:106D500087B0FFF7F1FF0646002840F01A818E4DFC
:106D6000C5F81804BFF34F8F6868AC6802902040E4
:106D7000033005EB800002A9FFF798FC029B18B1D5
:106D8000D5F81824002A66D004EA0302991C0133BE
:106D900005EB8202234005EB8303D268DB68049392
:106DA00002F00303022B0392029169D1BDF80E3069
:106DB0007A489DF80C604FEA931ABAF1500FD14609
:106DC00028BF4FF0500969F38F1309F10801ADF89E
:106DD0000E3004F060FEC6F3C2068046002800F0C4
:106DE000BF8004F087FE03A900230822404604F078
:106DF00094FE029924EA01070137BF00B94538D94A
:106E00005FFA89F997B3FFB2A9EB07092140033173
:106E10005FFA89FBB946624F05EB810108234A46B8
:106E2000404604F07AFE37B109F108035A46394664
:106E3000404604F072FE029B0AF1030A03EB9A0338
:106E40000293D5F81834002B50D1D5F81044DFF850
:106E5000649107276FE02A689A4204D86A60304636
:106E600007B0BDE8F08F04EA030081E74C49BB4658
:106E7000D4E72140033108234A4605EB8101D7E7D7
:106E8000012B6DD1BDF80C604448C6F3831106296F
:106E900028BF062161F3891602318900ADF80C6024
:106EA00004F0F9FDC6F3C2068046002858D004F06D
:106EB00021FE0023082203A9404604F02EFE0027ED
:106EC000BDF80C20C2F38312BB00974203F1080304
:106ED000B7D202994A1C21400331029205EB81018D
:106EE0000422404604F019FE0137E9E7404604F069
:106EF00005FEFFF721FF80F00100C6B2AFE7E368AF
:106F00005A79B2B11B79BDF8101003EB430259F85E
:106F1000211007FA02F3052E03EA010323FA02F314
:106F200008BF0326B34204D3236841461B682046AA
:106F30009847E3681C68002CE1D1404604F0DEFD70
:106F40000DF107008DF8074000F0F8FCD5F8183473
:106F50000BB9029B6B609DF8070000F013FDC8E7BA
:106F6000D5F8104474B90F4B5B88012BC1D90E4B77
:106F70000E480F49C01AC008000440F0020000F09B
:106F800073F8B6E7236820469B689847E3681C6857
:106F9000E8E7002663E700BF2C250020A0E70200F9
:106FA00038250020A8220020E0E60200F8E60200D2
:106FB00027ED0200E82200202DE9F74F284C8046FB
:106FC0000F46924601A9012218469B46D4F8089024
:106FD000FFF78AFB80B3019D0026A91C5E4506EBE6
:106FE000010233D100211F4801F072FE80F310002E
:106FF0006A1C02EA090204EB8202000405EA0903A2
:10700000033340EA1840D06014F8232068F3C50227
:1070100004F8232034F8232066F3891224F823206F
:1070200054F8232067F39F2244F8232002F0F8024B
:1070300042F0010204F8232094F820341BB1FFF73A
:1070400085FE0028FBD103B0BDE8F08F09EA0202FB
:1070500004EB82025AF82630D3600136BEE700BF47
:107060002C2500204829002000231A46FFF7A4BF42
:1070700007B50123019201AAFFF79EFF03B05DF857
:1070800004FB07B5CDE9002302236A46FFF794FF0E
:1070900003B05DF804FB1FB5CDE90123069B039304
:1070A00001AA0323FFF788FF05B05DF804FB000089
:1070B0001C4A2DE9F843D2F81034074688460024CC
:1070C000194689B9F9680C71A3B9C2F810740B603C
:1070D000154B164DED1AED08002603F10709AE42D7
:1070E0000DD12046BDE8F883C9680879A04212D0C6
:1070F0000968E6E7DB681A680A601F60E8E719F8C4
:107100003620FB684245314628BF42461879FFF7D2
:107110009BFC0136E3E701340A2CD1D14FF0FF3458
:10712000DFE700BF2C250020E0E6020078E7020040
:10713000094A38B50123D2F8104482F820341D469C
:1071400004B938BDE3685D71236820465B689847E1
:10715000E3681C68F4E700BF2C25002010B588B058
:107160000023CDE902330493CDE900331F4B204ABD
:107170000593204B06929B1A9B08079302AA6B4625
:1071800043F2274141F26E0001F06AFCB0B905A953
:1071900002A801F00BFC184B5B88022B04460AD9AD
:1071A0001648174B1749C01AC0080004224640F081
:1071B0000300FFF75DFF204608B010BD48F20963E9
:1071C000984210D105A902A801F0ECFB0A4B5B889C
:1071D000022B0446EFD90948094B0B49C01AC008D5
:1071E00000042246E3E70324E5E700BF6E102734DE
:1071F000E822002034230020A8220020F8E6020024
:10720000E0E60200C5EC0200F6EC020010B583686F
:10721000D3F848319B07044605D500221146BDE846
:10722000104003F0DDBAFFF799FF30B9044A082196
:107230002046BDE8104002F081BA024A0221F7E779
:1072400094E90200ACE9020000B589B00023CDE961
:1072500005330793CDE9013305AA01AB43F227417A
:1072600041F26E0001F0FCFB90B9CDE9030003A9E7
:1072700005A801F035FB40B91048114A0499121ACB
:1072800007F002F905A801F069FB09B05DF804FBFD
:1072900048F2096398420FD10A4B5B88012B09D948
:1072A00009480A4B0A49C01AC008000440F002000D
:1072B000FFF7DAFE0520E8E70320E6E7E8220020F2
:1072C00034230020A8220020F8E60200E0E60200B5
:1072D000A0EC020010B58368D3F848319B07044640
:1072E00005D500221146BDE8104003F079BAFFF73A
:1072F000ABFF30B9044A08212046BDE8104002F037
:107300001DBA024A0221F7E758E9020070E90200BB
:10731000037A052B10B50C460FD0437A23B1084AE7
:107320000849204603F099FE0749204603F095FEE0
:107330002046BDE8104003F085BE002AF8D0F3E7F0
:10734000ABEF020043F5020096F10200C38873B56B
:1073500004460D4633B1144A00921449144A284693
:1073600003F07BFE217A05291CD0637A4BB1A088FB
:10737000FFF754FB0F4B104953F82020284603F029
:107380006CFE227A0D4BA08853F822600021FFF793
:1073900023FB0B4903463246284602B0BDE8704045
:1073A00003F05BBE02B070BDABEF0200B8EF0200AD
:1073B000B0EF020078EF020043F50200DCEF0200BC
:1073C000D0EF02002DE9F04385B01F460C9D00234D
:1073D00006460C46904695F80C902B732946384685
:1073E000FFF7B4FFB8F1060F09D8DFE808F0041280
:1073F000181F283340003146284603F02EFE002295
:1074000029463846FFF784FF85F80C9005B0BDE8A3
:10741000F08322683146284603F01FFEEFE7D4E9E7
:1074200000233146284603F018FEE8E7A3680093DE
:107430003146D4E90023284603F00FFEDFE7E36876
:107440000193A36800933146D4E90023284603F052
:1074500004FED4E723690293E3680193A3680093D1
:107460003146D4E90023284603F0F7FDC7E76369F6
:10747000039323690293E3680193A3680093314661
:10748000D4E90023284603F0E8FDB8E708292DE9F0
:10749000F84F80460E4617461C463AD8002593F80A
:1074A0000C901D7319461046FFF750FFDFF884A0BB
:1074B000DFF884B0AE422ED918F805205946204690
:1074C00003F0CBFD0135082DF4D11849DFF86CB07D
:1074D000204603F0C2FD4FF0000A564520D918F8A7
:1074E0000A507E2D03D8284606F09CFD00B92E25B3
:1074F0002A465946204603F0B0FD0AF1010ABAF1C6
:10750000080FEAD1012221463846FFF701FF84F82F
:107510000C90BDE8F88F5146204603F09EFDD1E760
:107520000349204603F099FDE7E700BFA6EF0200FC
:10753000A4EF0200A2EF02009CEF0200A8EF0200FD
:107540001FB50021039001AA44F20100CDE9011109
:1075500000F004F805B05DF804FB000038B572B621
:10756000FFF7E6FDFFF7F2FB0028FBD1104D6B881B
:107570008BB1104B104C1149E41AE408240444F078
:107580000100FFF771FD6B88012B04D90C4944F011
:107590000200FFF769FDBFF34F8F0A490A4BCA6823
:1075A00002F4E0621343CB60BFF34F8F00BFFDE7EF
:1075B000A8220020E0E60200F8E6020028F002001F
:1075C00034F0020000ED00E00400FA05D0E90223E7
:1075D000D1E90201994208BF90422CBF012000204E
:1075E000704700002DE900480C4800F026FB0C4BCA
:1075F000D3E9002312EB000B43F1000C094BD3E954
:1076000000239C4508BF93455846614603D21BF1B1
:1076100080704CF10001BDE8008800BF64230020A9
:10762000F0290020582A002037B505460C460A48A4
:1076300001A901F0D8FA60B10570446001A90648BB
:1076400001F0FBFA18B1054800F0FCFA002003B085
:1076500030BD0420FBE700BF50230020642300203E
:107660001B4B1B782DE9304804461BB900252846E2
:10767000BDE830880028F9D090F8203003F0FF05ED
:10768000002BF3D0FFF7AEFFD4E90223994208BFE5
:10769000904217D323690BB984F82030D4E9053020
:1076A000984721690029E1D094F8203003F0FF05C4
:1076B000002BDBD0D4E9022312EB010B43F1000CC9
:1076C000C4E902BC2146034804F0AEFCCFE700BF8A
:1076D000F829002048F0020013B5114B1149186831
:1076E000019008235822104801F048FA044698B93E
:1076F0000E4A0F4801A900F083F9044660B9012140
:107700000B4800F07DFA01230A4A0948194600F0A7
:10771000E3F9094B01221A70204602B010BD00BFE8
:1077200042F00200FC29002050230020A177020033
:1077300064230020FFFF7F00F82900203AB103688E
:107740005A614A1E51425141196100207047072079
:10775000704738B590F8203004460D4683B98261F1
:10776000FFF740FF421941F10003C4E902232369F6
:1077700003B1256121460020BDE83840FFF754BF22
:10778000002038BD0023014680F820300120FFF79B
:107790004BBF0000014800F050BA00BF6423002036
:1077A0002DE9F04F85B0074600F032FA40B15B4A50
:1077B000D2E9003113F1807341F10001C2E90031D7
:1077C0000021384600F033FA38B1554C236823B114
:1077D0002068FFF745FF002323600121384600F0B1
:1077E00026FA20B1FFF7FEFE4E4BC3E9000103A9C4
:1077F0004D484B4D4D4C4E4E01F02FFA002846D1CE
:10780000DFF828A1464CDFF830B1504604F022FCE6
:107810002368002878D083B12368D0E90201D3E936
:107820000223994208BF90422ED2236893F8203059
:107830001BB12168504604F0F7FB504604F004FCED
:10784000D0E9026305460193FFF7CCFE019BB6EB3E
:10785000000863EB0109B8F1010F79F1000346DB81
:10786000344EB04541D9FFF795FF82194FF4960386
:107870000021584600F050F9002840D1236813B980
:10788000384600F021F9256005B0BDE8F08F037897
:10789000012B1FD05BB1022B13D14FF0000A204601
:1078A00004F0D2FB002835D080F820A0F7E741682B
:1078B00091F820302BB9012381F82030204604F0C4
:1078C000B3FB03A9184801F0F3F903A9164801F026
:1078D000C4F993E741682B68994202D100232B60D9
:1078E000EFE7204604F0B9FBEBE7AA68BEE700210A
:1078F000584600F092F92846FFF7B2FE01E00D2845
:10790000F9D00023236080E7002BBDD1384600F07A
:10791000DFF8B9E701233370D3E700BFF029002077
:10792000602A0020582A00205023002048F002003E
:10793000F8290020FFFFB4006423002070B5EFF3A6
:10794000108672B60C4A946801239CB993600B4B65
:107950000B4DD3F8801029401160C3F88050D3F844
:10796000841051604FF0FF32C3F88420047006B9D0
:1079700062B670BD0370FAE7642A002000E100E0FF
:10798000FC06FFBD084B9A6810B55AB150B9EFF329
:10799000108172B6054A1C6814605C685460986077
:1079A00001B962B610BD00BF642A002000E100E00A
:1079B0002AB113880144884204D1184670474FF613
:1079C000FF73F7E75BBA10F8012B9BB25A40C2F382
:1079D0000313534083EA03331BB25A0102F4FF52EC
:1079E00053409BB2E7E7435882B03BB1002343507A
:1079F00043580193019B012002B070471846FBE7F2
:107A0000F8B5284B4679284C43F82620274BF5003B
:107A10005F8863191B796BB1012F09D92448254B65
:107A20002549C01AC008000440F00200FFF71CFB03
:107A30000820F8BD03680A88C3F8082590F90430C7
:107A40008978002BA8BF03F1604CDAB2BABF02F00C
:107A50000F0EDFF86CC00CF5614C4FEA4111C9B252
:107A6000B4BF0CF80E108CF800135B09012102F072
:107A70001F02DFF850C0254401FA02F2022F4CF831
:107A80002320297144F8360009D90948094B0B49CC
:107A9000C01AC008000440F00300FFF7E5FA002018
:107AA000C7E700BF782A0020702A0020AC220020FF
:107AB00000E70200E0E6020076F0020098F0020023
:107AC00014ED00E000E100E0036801221A60704755
:107AD000036801225A60704773B501F15005AD008B
:107AE0000068ADB24FF480348C400026C0F80843E3
:107AF000C0F84843465101F5A8714559019522F057
:107B00007F42019D40F82120C0F844430BB1C0F8EA
:107B1000044302B070BD00002DE9F74F8846994636
:107B20004FF48036036808F150058E404FEA880A0A
:107B3000AD00C3F84863ADB2C3F80863074603EB72
:107B40000A00D3F804154FF0000B22F07F44D0F860
:107B50004025C0F8401543F805B05B590093009BE1
:107B6000531A23F07F43012B0BD1244B4FF4806039
:107B700043F0010398473B6843F805B05B59019314
:107B8000019B3868D0F80455C0F84463631B23F0A8
:107B90007F43012B1AD108F5A878184B013440F81F
:107BA000284043F001034FF4806098473B68D3F8C6
:107BB00004359D4208D13B680020C3F84463C3F8F4
:107BC000046303B0BDE8F08F0D20FAE78244C9F1E9
:107BD000FF19CAF84045D0F80435E21A013A22F0FC
:107BE0007F4209F57F499145EED3002AE3D1013464
:107BF000CAF84045D0F804259342DBE770F0020054
:107C000003680222C3F8442309B1C3F80423704770
:107C10004FF482710068FFF7E6BE4FF4803303FA39
:107C200001F10368C3F84813C3F8081370475031D3
:107C3000890089B20068FFF7D6BE0368D3F804054F
:107C40007047000090F9043001215A0903F01F0326
:107C500001FA03F34032024941F82230704700BF75
:107C600000E100E0024B034A1B681068184700BFA0
:107C7000782A0020702A002070B5064D06460024A0
:107C800055F8043B0BB1304698470134042CF7D12A
:107C900070BD00BF882A0020033080B240F2FE335E
:107CA000984230B51FD8134B1A783AB91C895D89B0
:107CB0002C440444A4B2B4F5806F0AD91A7DAAB941
:107CC0009A8BDC8B2244024492B2B2F5806F0DD8BD
:107CD00001220A801446142202FB04335A891044FC
:107CE0005881002030BD48F20860FBE748F206608A
:107CF000F8E700BFBC2A00200B4A0C4B5188142027
:107D000000FB0131CB6833B90420496810700122AF
:107D1000074803F057BC05230649137002238B80E4
:107D2000012200230968F3E7A02A0020BC2A0020D2
:107D300088220020742B002007B5002305490093FA
:107D4000054A09680548082303F07CFB03B05DF889
:107D500004FB00BF742B0020B8F002008822002032
:107D600007B50023009301460823034A034803F0A4
:107D700069FB03B05DF804FBB0F00200882200202C
:107D800013B500230C46009301460423074A084814
:107D900003F058FB38B9074B142202FB04340123CB
:107DA000237402B010BD48F20D60FAE7ACF0020097
:107DB00088220020BC2A002037B50A480A4B4268B6
:107DC0009C88196853880325033305709BB20020F3
:107DD00000909B0001EB8401044803F033FB03B0E7
:107DE00030BD00BFA02A0020742B00208822002074
:107DF00010B50146044800F0F6FE1C22044600219E
:107E000006F06BFB204610BD6C23002068B10268B1
:107E1000084B9A4209D14068074B984207D001337A
:107E200098420CBF012003207047032070470020B8
:107E3000704700BFDEC0ADDEFE011EF14388033394
:107E400000EB830399420BD382884FF6FF739A426B
:107E500008D0038833B18068431C584258417047AA
:107E600002207047012070472DE9F8430223DFF814
:107E700060800B800D46174600F5805600F108041F
:107E80004FF00109B4420FD2236801330CD03146C0
:107E90002046FFF7D3FF48B10FB187F800900228C2
:107EA0000BD14FF480632B80BDE8F883A368D8F82A
:107EB0000020934201D9C8F800302B886288033330
:107EC00013442B806388033304EB8304DAE700BF99
:107ED000B42A0020154A142303FB002070B50B6858
:107EE00044680D4604F58056ABB15C88033403EB5F
:107EF0008404B4420DD2236801330AD031462046AF
:107F0000FFF79CFF01280BD010F0FF0F05D00228CF
:107F1000EFD1002003E00834EBE72C60012070BDB6
:107F20006388033304EB8304E3E700BFBC2A00202B
:107F3000436873B504460D466BB3244AD1688B423F
:107F400029D31269934226D813F0030023D1204A83
:107F50002189128991421ED121689A6891421AD1D1
:107F60001C4A51688B4203D901F580518B420DD3D5
:107F7000926993420CD902F58052934208D20123B0
:107F80002B80B0FA80F0400902B070BD0346F7E7DD
:107F900048F20960F5E700232B801E46019601A9EF
:107FA0002888FFF797FF30B92B8801339BB2012B4C
:107FB0002B80F3D9E8E7019B226899689142EED1C2
:107FC0006360034B1B892381DEE700BF882200200A
:107FD000A02A0020BC2A00202DE9F8431C461D4B96
:107FE0001B7806460F46154673B382B37CB3DFF8A1
:107FF0006C804FF01409A388012B02D948F2096064
:1080000020E009FB03F318F803302BB92146A088C0
:10801000FFF760FF20B92060A3880133A380EAE75F
:1080200023681EB1998832889142EFD11FB1198817
:108030003A889142EAD19A68C5E90023064B1B8928
:108040002B810020BDE8F88348F20160FAE748F28E
:108050000460F7E7982A0020A02A0020BC2A00200C
:1080600008B5074B191D5888FFF734FF18B1BDE854
:108070000840FFF7A1BEBDE80840FFF73DBE00BFC6
:10808000A02A00202DE9F04FA34FDFF8B09289B06D
:108090000646B8463B6823B94946A04800F0DDFDD6
:1080A0003860D8F8005029784B1E052B00F2FE806E
:1080B000DFE813F0060060006000F200F2006401E7
:1080C0002EB1974B00225A604FF40644F0E02B7912
:1080D000032B1DD8DFE803F015022B3691490B78EE
:1080E000022B08461AD00B7D022B4FF0010317D14B
:1080F00014225343C2180020C8545068FFF730FEC2
:1081000003E001232B71FFF717FE002800F0BE806B
:10811000834B00225A6048F20D64C9E00023E7E770
:108120007F4A13700023536041F61D54C0E07E491E
:108130007E48002302222B718A800122096803F005
:1081400041FAE2E7784C00262E712068754DFFF762
:1081500007FE774BD4F800C05A8814235343EA181B
:10816000EE5451682160A188C2F804C01181022236
:10817000A280CAE7B5F814A0AA7DDFF8A8B1AEB115
:10818000022AEB8806D9142101FB0AB1DA1C0889FE
:1081900002440A81142202FB0ABAC3F57F43BAF8EB
:1081A0000A20FD331344AAF80A308DE7142303FB99
:1081B0000AB318895C6804EB8004062A69D8DFE8F2
:1081C00002F0274E36441D5A040041F61D54AA7D84
:1081D000EB88022A06D9142101FB0AB1DA1C0889AE
:1081E00002440A81142202FB0ABAC3F57F43BAF89B
:1081F0000A20FD331344AAF80A3059E04D484E498D
:1082000000234360AB690360FFF792FE002874D03F
:108210000223AB75002300930423EA182146434848
:1082200003F010F9002831D048F20D64CFE72B6934
:10823000002B14BF03230123AB750023009305F12A
:108240000C02042304F10801E9E70123AB750022C5
:10825000EB8800929B002A6904F10C01DFE70329F7
:108260000CBF05230623AB7500230093042305F1FF
:108270000802E118D3E70623AB752F4B19882D4B65
:108280005868FFF77DFD04460028A0D109B0BDE87D
:10829000F08F48F20E649AE7002E7FF415AF2B7929
:1082A000012B4DD0EBB1022B3FF43EAF48F20E64F0
:1082B0001422002103A806F010F941F61D539C4238
:1082C00008BF0024D8F8003004941A78023A042A2F
:1082D00000F20881DFE812F0E900F5001801200142
:1082E000270102232B710DF10A01EB68039303A808
:1082F000CDE90466FFF71CFE10B948F20964D7E720
:108300000498BDF80A108388EB8003882B81FFF75F
:1083100037FD044629E000BFB82A00206C23002066
:10832000982A0020BC2A0020742B002088220020DC
:10833000A02A00207C2A0020802B0020B02A0020C8
:10834000DFF800A203AA53463146A81DFFF744FEFA
:10835000044668B9BAF804100498FFF711FD044602
:1083600048F209639C423FF4DFAE002CA0D18DE7B8
:1083700008223146504606F0B0F8F1E7002E7FF4AF
:10838000A3AE6B4B1A7BAAB11E731A78013A062A68
:108390008CD801A151F822F03F84020065840200CC
:1083A0008384020089840200AD8202008F8402006F
:1083B000A18402001A78072AE7D801A151F822F017
:1083C000E18302008B8302008B830200078402009A
:1083D0001B8402003B8402003B84020003840200F1
:1083E0001A89544901321A8100225A801A730A7874
:1083F000B2FA82F252099A720A7DB2FA82F25209F4
:10840000DA72012207E04C4958688A8840880332B2
:1084100002448A8002221A70B7E7464C5A884649BD
:10842000142505FB02420868546850608888108152
:1084300002228A800C600622EDE70722EBE79A7A97
:1084400032B9DA7A8AB900221A705A805A606BE619
:10845000384900229A72CA68002AF2D1097C0029A0
:10846000EFD05A80FFF7FCFD53E70022DA72314A61
:10847000116A0029E7D192F82420002AE3D00122D2
:10848000EFE7FFF799FC44E7FFF736FC41E7294A9D
:108490005B88142101FB03235868FFF761FC38E770
:1084A00000225A60FFF748FC33E701228DF80C20C8
:1084B0001A89ADF818209A88DB68ADF81A20059360
:1084C00010E002228DF80C201A89ADF818209A8845
:1084D000ADF81A20DA689B7D05929A1F53425341EA
:1084E0008DF81C3003A8FFF7C7FB00264946134848
:1084F000C8F8006000F0DCFB0121114800F034FCFA
:1085000000287FF4C7ADC1E603228DF80C20DA887D
:10851000ADF818201A89CFE70422DB888DF80C20EB
:10852000ADF81830DEE705238DF80C30DAE700BF30
:10853000A02A0020BC2A0020742B00206C230020DD
:10854000702B0020842B00204068FFF79BBD0000AB
:1085500008B50121044800F0F1FB18B9BDE8084056
:10856000FFF790BD08BD00BF702B00202DE9F3413F
:1085700098460023ADF80230414B1B7806460D4665
:10858000002B71D0002972D009884FF6FF739942F1
:1085900070D06B88002B6DD06B689B076DD142B992
:1085A0002F8969463846FFF777FB30B102B0BDE846
:1085B000F08113885788ADF8003001A8FFF718FC48
:1085C000044660B9BDF800302E4A142101FB032394
:1085D00058890338C01B588148F20760E6E700233A
:1085E0008375BDF8003083826B68036180F800807A
:1085F0000121254800F0ADFB2B882381B8F1030F42
:108600006B88A38001BF0423A3753368A361E06076
:1086100000220621E780201DFFF7CAF90DF10202B2
:10862000ADF80200042104F10C00FFF7C1F9A968BC
:10863000ADF8020089000DF102026868FFF7B8F991
:1086400001A9ADF802006081104800F0F6FA3EB1D1
:108650000023E2687360B3720D4B32601B89338173
:10866000FFF776FF0020A1E748F201609EE748F29D
:1086700004609BE748F2036098E748F2026095E7E0
:10868000982A0020BC2A0020B42A00206C23002055
:10869000A02A002008B5084B1A68042A09D01968D6
:1086A000064A42F821000121184600F052FB002042
:1086B00008BD48F20B60FBE77C2B0020882A0020D5
:1086C0002DE9F04F89B01422002103A805F005FF21
:1086D000784A137803F0FF01009190463BB103A85C
:1086E000FFF7CAFA0027384609B0BDE8F08F101D21
:1086F00000F045FB0028F5D140F6F8734FF08052AA
:108700001B685C1C08BF6C4B6C4C08BF1B68116974
:108710005269581C08BF02FB01F323610022A3F534
:1087200040536749E360204602F050FE019407463B
:108730000028D8D11C238C2262496348DFF89CB101
:1087400000F01CFABA463D464FF003093C46019B37
:10875000DE6856443046FFF759FB012860D042B22C
:10876000002A4AD0032827D13268531C02D0574B25
:108770009A4234D1321D06F58051106801302ED155
:1087800004329142F9D1DBF800203AB902220123E8
:10879000CBF80060ABF8042000930BE01422624396
:1087A0004B4B0220991898544A4A4E605480013429
:1087B0000881A4B245F001050AF5805ABAF5405F78
:1087C000C5D1B9F1010F98BF0025EDB2022D03D03C
:1087D000062D44D0002D4CD148F20A6783E73C496E
:1087E00014226243881809F1FF3946600320885437
:1087F0001FFA89F90134A4B2DEE735491420604339
:1088000001EB000C0A5400F1100208300A44CCF8C5
:10881000046001443046FFF727FB45F00205E9E715
:10882000009B6BB12A4B1422624399180220985482
:10883000DBF800204A60274A088154800134A4B242
:1088400000222549CBF800603046FFF70DFBBBF84E
:108850000420022A0CBF042208221543ACE701239E
:1088600088F8003003A80023C8F80430FFF704FAA2
:1088700039E702A8FFF7BCFAC8B10123013D037034
:108880000A2D09D8DFE805F00608060807080708DA
:108890000F110F000023037102A90B4800F0CDF95E
:1088A000FFF756FE1FE70323F5E70223F3E748F23D
:1088B000076718E7982A002014100010882200206B
:1088C000FCF90200E42A00206C230020DEC0ADDEAB
:1088D000BC2A0020A02A0020782B0020742B002026
:1088E0002DE9F3410E46054668B361B301A9FFF7D0
:1088F0001FFB58B36C68002206212046B4F806809E
:108900006788FFF755F8791CADF806000DF10602EF
:10891000890004F10800FFF74BF8804519D10E4B90
:10892000BDF80400142202FB003001210C3000F0DD
:1089300010FA6B6834600C3373600123AB72002053
:1089400002B0BDE8F08148F20460F9E748F209603E
:10895000F6E748F20C60F3E7BC2A002013B50446A2
:10896000A8B10DF10601FFF7E3FA98B10C4ABDF882
:108970000630142101FB0323DA6872B1A27A62B1D6
:10898000DA680020013ADA60A07202B010BD48F245
:108990000460FAE748F20960F7E748F20560F4E797
:1089A000BC2A002002230022FFF7E0BD18B10323F8
:1089B0000022FFF7DBBD48F204607047104B1B78C4
:1089C00037B505469BB1A8B101A8FFF711FAA0B1D0
:1089D0000423037000242B68C360047101A90948B3
:1089E00000F02BF9FFF7B4FD204603B030BD48F28C
:1089F0000160FAE748F20460F7E748F20760F4E73D
:108A0000982A00206C2300200F4B1B7807B5A3B1D8
:108A100001A8FFF7EDF998B10623037001A90B48EF
:108A200000F00BF90A4B1A780AB101221A73FFF70A
:108A30008FFD002003B05DF804FB48F20160F9E708
:108A400048F20760F6E700BF982A00206C23002058
:108A5000A02A00200B46002102460846FFF7BCBAB8
:108A600007B5ADF80600ADF804100DF1060001A938
:108A7000FFF7B2FA03B05DF804FB00002DE9F84FF0
:108A80003C4B1B780446002B6ED000286FD012227E
:108A90000021DFF8E4A005F020FD032323804FF040
:108AA000000BD04614274FF00109DAF80410BAF889
:108AB0000A50BAF808600846FFF7A8F9032808BF6B
:108AC0002388628804BF03F1FF33238007FB0B83F5
:108AD0002E44DB681344638023891D446389258108
:108AE000B6B233446381C6F58066A389B6B2B34299
:108AF00038BFA68101F1080501F58056AE4217D9AD
:108B00002B68013314D031462846FFF797F9012826
:108B100019D010F0FF0F23D00228EFD1E38884F89A
:108B20001090761BE589013305EBA605E380E5810E
:108B30000AF1140ABBF1000F02D00020BDE8F88F43
:108B40004FF0010BB1E7E3880133E380E3896A88E2
:108B500003331344E3816B88033305EB8305CDE7CF
:108B6000A3880133A380F6E748F20160E6E748F204
:108B70000460E3E7982A0020BC2A002010B561B108
:108B8000B2FBF3F403FB1424A4B244B9C0E900140B
:108B900084608281C381204610BD0E20FCE709203D
:108BA000FAE782B050E8022FC188B2EB324F4FF0A3
:108BB000000317BF92B241EA014142EA014104E0D9
:108BC0004268B2EB324F08BF012340E80212002A8C
:108BD000E8D18DF807309DF80730002B0CBF11202D
:108BE000002002B0704737B550E8013F9DB2C489FC
:108BF00025448489A54228BF2D1B0489A54202BFB4
:108C0000BFF32F8F002207E0C5EA030540E80154B7
:108C1000002CE9D14FF001028DF803200193019B54
:108C20009DF803200B6002F0FF0322B10B8800685F
:108C3000184403B030BD1846FBE70A884B889A42B7
:108C400009D150E8012FC2EA024240E80123002B7B
:108C5000F7D1012070470020704737B550E8023F38
:108C60001FFAA3F5C488A54202BFBFF32F8F0022CD
:108C70000DE0C48925448489A54228BF2D1BC3EA81
:108C8000054540E80254002CE8D14FF001028DF870
:108C900003200193019B9DF803200B6002F0FF036A
:108CA00022B14B880068184403B030BD1846FBE77A
:108CB0000A884B889A4209D150E8022FC2EA224220
:108CC00040E80223002BF7D10120704700207047B5
:108CD00050E8002F0B4640E8003C9CF0000FF7D115
:108CE0001046704750E8002F42EA010340E8003C7C
:108CF0009CF0000FF6D11046704750E8003F43EA61
:108D0000010240E8002C9CF0000FF6D1104670479D
:108D100050E8002F02EA010340E8003C9CF0000FFD
:108D2000F6D11046704750E8003F03EA010240E8E0
:108D3000002C9CF0000FF6D11046704750E8002F31
:108D400002EB010340E8003C9CF0000FF6D1104616
:108D5000704750E8003F03EB010240E8002C9CF014
:108D6000000FF6D11046704750E8003FA3EB010218
:108D700040E8002C9CF0000FF6D11046704701210E
:108D8000FFF7B0BF0121FFF7B8BF0021FFF7C0BF59
:108D90000021FFF7C8BF00002DE9F0478368D3F832
:108DA0004841C4F3400488B0074634B1002211465C
:108DB00008B0BDE8F04701F013BD012906D91E4AED
:108DC000022108B0BDE8F04700F0B8BC1B4D1C4EB6
:108DD000DFF870A04FF06408A146761B1C23B6FB99
:108DE000F3F6A64205F11C0502D108B0BDE8F087F4
:108DF00055F81C0C55E90623017900689A1A1B1ACC
:108E0000DBB2039308FB03F3B3FBF2F3CDE9019369
:108E100035F8043C0093CDE9061255F8083C11FBE7
:108E200008F13846B1FBF2F1CDE9042152460821A0
:108E300000F084FC0134D4E7F8F00200A0E702005F
:108E4000D8E702000BF1020010B590B1D0E9012380
:108E500001689B1ADBB20A60013BDBB2FF2B0268A0
:108E600002D10020107110BD11684C1C14600B70F1
:108E7000F2E70E20F7E737B5054600240DF10700AD
:108E80008DF80740FEF75AFD2A686B681168994211
:108E90000ED9481E106011F8014CEB68298B01FBBC
:108EA0000434AB6811791B1ADBB2994238BF1371D5
:108EB0009DF80700FEF766FD204603B030BD37B5CC
:108EC000054600230DF107000C468DF80730FEF72C
:108ED00035FD2A681368591C1160E968641A298BEA
:108EE000B4FBF1F41C709DF80700FEF74BFD03B0D6
:108EF00030BD30B18A68B2F8483143F02003A2F89F
:108F000048317047436810B59C6860680368012168
:108F10009B689847A36810B903221A7010BD0422F9
:108F2000FBE70968006805F02DBB08B105F051BBEF
:108F3000704738B5836805460068DC7FFFF7F5FFAA
:108F4000AB685A7E2044B0FBF2F302FB1300B0FA88
:108F500080F0400938BD10B584680068FFF7E5FF70
:108F6000E37F627EA076C0B20344B3FBF2F102FB62
:108F7000113301332375A37F01311844A175B0FB70
:108F8000F2F3591C02FB13030133E175637504F11D
:108F9000140010BD38B58368054600689C7FFFF754
:108FA000C4FFAB685A7E2044B0FBF2F302FB13000F
:108FB000B0FA80F0400938BD2DE9F843089C1E4600
:108FC0000F46E1B9184D194C641BE408944204D9CA
:108FD000174800EB8208BC4201D100230AE06B680D
:108FE000D8F80000196805F0CDFAA946083520B96F
:108FF000D9F804303360BDE8F8830137EBE7002887
:10900000EBD00178436839B1214610469847236870
:10901000002BE2D03460EEE7120199189B58002B28
:10902000DBD03160E7E700BF34E60200A4E60200CF
:109030005022002030B50368D3F8405185B0044673
:10904000EDB10023092201A9284602F070FD236832
:10905000029AC3F840210021092201A805F03DFA37
:109060000023092201A9284602F057FD284602F0F4
:10907000FCFC2368D3F8400118B9C3F83C0105B0E3
:1090800030BD01A90023092202F051FD2068002310
:10909000092201A9D0F84001019302F03EFDEEE75C
:1090A00007B58368B9B1DA7E8A4211D00B4A0092C3
:1090B00033228DF8042001F12F028DF805206D2256
:1090C000ADF80620D9766A460549006901F0C5FF6A
:1090D00003B05DF804FBD976024AF5E71B5B313B30
:1090E00043F502002CF20200836807B51A7F8A421A
:1090F00013D045F61B32ADF8002034228DF8022043
:1091000001F12F028DF803206D22ADF804201977AC
:109110006A460349006901F0A0FF03B05DF804FB53
:1091200043F50200014901F098BF00BF59F5020064
:109130000A460068014901F090BF00BF5CF20200DE
:1091400009B1FFF7F5BF7047014A024901F085BF39
:1091500022F2020043F502002DE9F0470025064601
:109160000F4614460560207840B104F056FF60B108
:10917000002304F8013B33680B2BF4D93368002239
:1091800047F823202846BDE8F08733685A1C326030
:1091900047F82340054694F80080B8F1000FEAD064
:1091A000002D40F08280B8F1270F06D0B8F15C0F97
:1091B00000F08380B8F1220F6FD12046FFF7B5FE93
:1091C000611C0246204604F0ADFF4546E3E7204619
:1091D000FFF7ABFE611C0246204604F0A3FF00250A
:1091E000D9E7302825D102234FF00008E05CA0F138
:1091F0003001C9B207295FFA83F917D8013341EA70
:10920000C801052B5FFA81F8F0D199462046FFF797
:109210008CFE09F1FF3AA244821CA2EB09025146DE
:10922000204604F07FFF04F8018BB4E7B9F1020F88
:10923000ECD1782837D102214FF00008635CA3F10C
:109240003002D2B2092AC8B214D842EA081303295C
:109250005FFA83F80CD14FF0040A2046FFF765FE51
:109260000AF1FF39A144821CA2EB0A024946D7E762
:109270000321E3E7A3F16102052A03D8573B43EA40
:109280000813E4E7A3F14102052A01D8373BF6E7CA
:10929000022808D04FF0030ADFE7404604F0BDFE85
:1092A00000287FF468AF013475E7A8458FD0B8F186
:1092B0005C0FF8D16078854293D12046FFF735FEE8
:1092C00004F1010802464146204604F02BFF4446C3
:1092D00061E72DE9F34106460F461446002514B90F
:1092E00002B0BDE8F081706803682246D3F80C80B4
:1092F000791901ABC047019B1D44E41A002BEED144
:10930000B3681A78032AEAD0D3F848219206FBD52D
:10931000B3F848216FF34512A3F84821DFE72DE9A0
:10932000F04F054685B090460F46002971D00024C5
:10933000385D04F072FE40BB5FFA88FB05F1100A4D
:109340003846FFF7F2FDAB685B7E001BA3EB08031A
:10935000984207EB04091AD94A46002612F8010B75
:1093600002930192039204F058FEDDE9012320B13B
:1093700012F8013C0A2B35D03346A968487E08EB29
:10938000060188422DD90136E8E70134D0E74B4683
:109390000026B04219D013F8012B0A2A04EB060A62
:1093A0001DD1286901F04EFE32462E464946284618
:1093B000FFF78FFF56F8100FFFF7B4FE5FFA88F142
:1093C00030460AF10104FFF7BBFE2869391901F0A4
:1093D00044FE286905B0BDE8F04FFFF7A3BE013693
:1093E000D7E71E46286901F02DFE32464946284639
:1093F000FFF76FFF3444385D04F00FFE38B9286979
:10940000FFF790FE59465046FFF79AFE98E7013461
:10941000F1E705B0BDE8F08F0A4619B102490068CE
:1094200001F01BBE704700BF62F202000A4619B18C
:109430000249006801F011BE704700BF56F20200F9
:1094400070B50546FFF787FD83790278817801338F
:109450009A42044601D1012915D0012905F11006CF
:1094600004D90139C9B23046FFF7D6FF2378A17974
:109470008B4209D9013B591AC9B23046FFF7D6FFD2
:10948000AB680022DA7770BD0131C91AC9B2304623
:10949000FFF756FEF4E7F8B50546FFF75CFD044616
:1094A0008778C6782846FFF744FD78B12869FFF72A
:1094B00039FEB74205F110050ED161782378C91A3B
:1094C0002846C9B2BDE8F840FFF7B0BF2846FFF70D
:1094D00061FD0028EAD1ECE7A378E178C91AC9B2A6
:1094E0002846FFF799FF237861788B42E7D9591A0C
:1094F0002846C9B2BDE8F840FFF722BE2DE9F34186
:1095000006468068414F002480222146A0308DF815
:10951000034004F0E2FF3E49306901F09EFD3069EE
:1095200001F090FD4FF47A7547F001077068036809
:109530000122D3F810800DF1030101ABC047019B5C
:109540005BB94FF6C010B847019B002BEED1013D2F
:10955000ADB2002DEAD10D2033E09DF80330B168A3
:109560001B2B46D091F8A0201B2AEDD1522B40D1C5
:109570000C44002384F8A03091F8A1205B2A1DD16F
:1095800001F1A200022510F8012B0135EDB23B2AB2
:109590006CB219D1002C1FDB05F1A0040C44002291
:1095A00014F8010BD0B9FA2A28BFFA22FA2B28BFE7
:1095B000FA230A758B7581F8A00002E081F8A030CB
:1095C0000B2002B0BDE8F08103EB830302EB430301
:1095D000303B802D9BB2D6D10C20F2E702EB820209
:1095E00000EB420001353038EDB282B22806F3D4E8
:1095F000D6E70A190134E4B2092C82F8A030A3D9C5
:10960000002381F8A0300420DBE700BF70F20200E5
:1096100047F2020038B50546FFF79DFC0278437813
:109620009A4204468378C27801D1934214D09A4278
:1096300005D9D21AD2B20B49286901F00EFD237860
:1096400061788B4205F1100007D9591AC9B2FFF7AA
:10965000EDFEAB689A7FDA7738BDC91AC9B2FFF759
:109660006FFDF6E750F20200F8B51E46C3685B686E
:10967000054698604068036817461C68294A2B46CF
:10968000A0470446002844D1686902F0ECF904467A
:1096900000283ED1A8684FF4A6722146C0E94F4485
:1096A00004F01BFFAB682048B3F8482142F02002C9
:1096B000A3F84821B3F8482167F38202A3F84821B0
:1096C000B3F8482142F00802A3F8482101221A7099
:1096D00045F218021A83154A154B9B1A4FEAD30C10
:1096E00021460432614516D1072B04D9114B0E488F
:1096F000042204F034FD66B19DF81810E868FDF707
:10970000D7FC0028A1BFEB68DB6801225A71B8BF03
:1097100004242046F8BD52F831703F6840F8047BBD
:109720000131DFE7F38E02005022002034E6020010
:10973000A4E60200238F0200FFF7CBBD0CB473B583
:1097400006AB0E4653F8045B81680193D1F84831AB
:109750005B07044620D5CB7EB3421DD002221B31CD
:10976000684604F091FE31462046FFF799FC01AAB5
:109770002946206901F0EEFC9DF800102046FFF715
:109780008FFC9DF8011011B12046FFF7ADFC02B02F
:10979000BDE8704002B0704701AA2946206901F077
:1097A000D9FCF4E7F8B504468068857FAB187F2BB9
:1097B0000F4616463ADC002A38D0C37FED1A03F173
:1097C000200113442033EDB201446A1C184404F014
:1097D000A9FCA068C37F203332463946184404F000
:1097E000A1FCA0682030FFF7A0FBA268D37F907790
:1097F0002033134420460E4A0821FFF79FFFA36839
:10980000DA7F3244DA772046FFF793FB40B12069D4
:10981000FFF788FC55B12046BDE8F840FFF73BBE96
:109820002046FFF7B7FB0028F1D1F3E7F8BD00BFF2
:1098300043F502002DE9F04104468068D0F8483134
:10984000827FC3F30008C37F5FFA88F7D51A0E46FC
:10985000EDB2002F3ED17E2A40D83DB103F1200168
:10986000213301442A46184404F05CFCA368DA7FE3
:109870001A4482F82060002F72D19A7F0132D2B24E
:109880009A77134483F82080002D72D02046FFF78A
:1098900062FB8278C3789A4204F1100620D1A26854
:1098A000D37F2033134408212046354AFFF746FF73
:1098B000E91BC9B23046FFF7B9FDA268D37F013377
:1098C000D3772046FFF735FB10B32069BDE8F041A0
:1098D000FFF728BC7E2AC9D9002DC7D1BDE8F08189
:1098E0002069284A264901F0B8FBA268D37F2033BB
:1098F00013442046224A0821FFF720FF2069224A0C
:109900001F4901F0AAFB01213046FFF711FCD4E703
:109910002046FFF73FFB0028E0D02046FFF71BFB67
:10992000C2788378013AD21A12F0FF02054604F198
:10993000100603D01549206901F08FFB2069FFF75D
:10994000F1FBE978AB78C91A3046C9B2FFF764FD7C
:10995000297801393046C9B2BDE8F041FFF7F0BBC4
:10996000002D93D19A7F0132D2B29A77134483F8B3
:10997000205032460649206901F06FFB9DE700BF89
:1099800043F5020026F2020029F2020050F2020022
:10999000A8EF0200F0B5826885B000250446CDE945
:1099A00001558DF80C50D2F844610F46002941D181
:1099B000002E3AD0FFF744FDA0683B46D0F84401A2
:1099C000092201A902F0B3F8A068029BC0F8443153
:1099D000857F002B4CD1A030FFF7A7FAA36830B3E6
:1099E00003F1A00103F1200004F0AAFDA0682030DB
:1099F000FFF79BFA8DF80C009DF80C30A268AB4283
:109A0000D377937702D22069FFF79EFBA3682D4A94
:109A1000204620330821FFF791FE2046FFF789FA00
:109A2000002848D02069FFF77DFB05B0F0BD83F822
:109A30002000DBE7D2F84031B342F6D0D2F83C3117
:109A4000002BF2D0FFF7FCFCA368D3F8440130BB35
:109A500003F12000FFF769FAC5B2A068D0F83C31E5
:109A6000C0F84431C5B100F12001A03004F068FD18
:109A7000A06801A900230922D0F8440102F057F898
:109A8000A0689DF80C2000F1200109230132D0F8D4
:109A9000440102F04CF8AFE780F8A050E8E72B460D
:109AA000092201A902F043F8A368019A9DF80C501D
:109AB000C3F84421DCE72046FFF76CFA0028B1D157
:109AC000B3E700BF43F5020038B504468068C37FA2
:109AD000857FED1A15F0FF0540D003F121012033F9
:109AE00001442A46184404F01DFBA268937F013B01
:109AF00093772046FFF72FFA8278C3789A4215D1E0
:109B0000A268D37F203313442046154A0821FFF76B
:109B100015FE54F8100F1249124A01F09EFA691E00
:109B20002046C9B2BDE83840FFF780BC0E4A0C4958
:109B3000206901F092FA2069FFF706FBA268D37F43
:109B4000203313442046064A0821FFF7F7FD206919
:109B5000064A0349BDE8384001F07FBA38BD00BF6E
:109B600043F5020030F2020026F2020029F2020060
:109B70002DE9F041C3685B6890B004460D460022B1
:109B800003A9186802F0CBF8002840F08B808DB153
:109B9000039801F0B3FFA268D2F838310133C2F85C
:109BA000383103F00703012B04D00125284610B0FB
:109BB000BDE8F0812046FFF7CEF9817801290646FD
:109BC00005D90139C9B204F11000FFF725FC31783D
:109BD000012905D90139C9B204F11000FFF726FCAB
:109BE0002069FFF7B1FA2DB12F4A02212046FFF775
:109BF000A5FDDBE70023082204A9039801F097FFE5
:109C0000069B0793059B08939DF810308DF825500F
:109C100003F00302012A25D1BDF81060049F0398C8
:109C2000C3F3C203C6F383168DF82430B2000823B1
:109C30000AA901F07CFFC7F39527236900933246F8
:109C400007AB0AA93846FDF7BDFB039801F056FFA4
:109C5000E3685B68002203A9186802F060F8002836
:109C6000C8D0A2E7022AF0D1BDF81260C3F3C20344
:109C7000B6098DF824304FF00808082E374628BF63
:109C8000082743463A460AA9039801F050FFF61BFD
:109C9000236907AA39460AA8B844FDF7F7FB002E46
:109CA000EBD1D2E7002581E7F4F1020043680121FE
:109CB0009868FFF75DBFF7B547680191BC68A36876
:109CC0001E78042E0ED001A9386801F053FF054616
:109CD00050B9019801F00EFF032E03D1294620460A
:109CE000FFF746FF03B0F0BDF11E18BF012120466B
:109CF000FFF73EFFE7E700002DE9F04F04468068DC
:109D0000A5B0102100F5A470FEF7F7FFA3681B783B
:109D1000022B40F0938000230B93606803680122BC
:109D20001D690DF12B010BABA8470B9B002B6CD0D1
:109D30009DF92B30002BF0DB01F003FFA068437886
:109D40000593022B00F20685DFE813F003004404BC
:109D50004B049DF82B500D2D31D00A2D2FD0B0F88B
:109D600048316FF38D13A0F84831092D00F0FD81C3
:109D700000F2EA81002DD0D0082D00F0D1832846D2
:109D800004F050F90028C8D0A3689DF82B10D3F830
:109D90004851C5F3C00515F0FF0F40F01683987FBA
:109DA0007E28BAD8DE7F721CD2B2DA771E441A44FB
:109DB000013086F8201082F820509877ADE7D0F86F
:109DC000483113F47F5F05D0D0F84831C3F38713CF
:109DD0009D42CAD1B0F8483165F38D13A0F84831DF
:109DE000837F002B37D1C0F844312069FFF79AF9FF
:109DF000A36802221A700022DA8383F820202368E5
:109E0000B14A03212046FFF799FC00212046FFF7C5
:109E1000AFFE98B12368AC4A03212046FFF78EFCC1
:109E2000A368D3F84821120708D520462033A64A54
:109E30000821FFF783FC2046FFF72DFB206901F086
:109E400001F9A0686FF0100100F5A470FEF76BFF38
:109E500025B0BDE8F08F90F82030002B5CD1A068D1
:109E60002030FFF762F8A3680026C5B2C3F844614A
:109E700015B3D3F83C01002800F08F803346092247
:109E800017A901F054FE9DF864309D4240F0858092
:109E9000A068092300F1A0016A1CD0F83C0101F080
:109EA00046FEA06800F1A001203004F06BFBA3681F
:109EB000002870D183F8A0002046FFF7ABFB2046B6
:109EC000FFF737F810B92069FFF72CF9A26817A936
:109ED00020320EA8FFF740F90E9A0346002A84D0DC
:109EE000002840F0A080794F794EF61BF608054611
:109EF000AE42179B40F09D80764A00920221764A3E
:109F00002046FFF71BFC73E70135B5F5807F04D1D0
:109F1000002283F82020A2E70025A3682B44EEB29C
:109F200093F8200004F079F8A3680028ECD16EB112
:109F30009A7F03F120000132521B411904F0F2F81C
:109F4000A268937F9B1BDBB29377D377A568AB7F27
:109F50001F331D445FFA85F8A946EFB2A8EB070648
:109F600099F80000F6B2013D04F057F80028F3D14B
:109F7000A268937F03F11F01114489453FF46FAF3D
:109F80009E1BA7EB080716443B44DBB286F8200073
:109F90009377D37763E783F8A060082705F10A0673
:109FA00004EB07083146606901F075FD054600289D
:109FB00033D0A368D3F83C01A8B9C3E94F55CDE924
:109FC00017009B7F8DF8643017A9284600230922CB
:109FD00001F0A3FDA1688A7F0923013220312846C0
:109FE00001F09BFD68E70023092217A901F09FFDFE
:109FF000A06818950023092217A9D0F83C0101F0A8
:10A000008CFD00231893A368D3F83C2117929A7F04
:10A010008DF86420C3F83C51D6E74046FFF70AF8B4
:10A02000013FBFD148E72D4A02212046FFF786FBBA
:10A03000DEE67A681846116804F0A4FAB8460837D4
:10A0400018B10135AE42BFF453AFA0680021102211
:10A0500004300F9104F041FAD8F80450EB682BB1AA
:10A0600095E80F00A668043686E80F00D5F808B01A
:10A07000DFF86C90DFF86CA017AF00264FF00108F6
:10A0800000250E9B43450BD94946786804F07AFABF
:10A0900050BBA268B2F8483143F00203A2F848313D
:10A0A000A3681B69002B49D00E9917AA02EB860200
:10A0B000891B20469847A368B3F848216FF34102F3
:10A0C000A3F8482194E600BF43F5020034E60200FD
:10A0D000A4E60200D4F4020012F40200C0F402006C
:10A0E000E8F40200EBF402005146786804F04AFA02
:10A0F0000028CED013AB00932A460FAB41465846FA
:10A10000FEF75AFF6A1CCBD00F9B002BC8D01968F2
:10A11000786804F037FA01350028B2D10F9DEB685A
:10A1200033B195E80F00A668043686E80F0046466E
:10A1300008F10108D5F808B00437A1E7A54A0221C3
:10A140002046FFF7FBFAB6E71B2D0BD07F2D7FF4DF
:10A1500016AED0F8483118077FF5DFAD2046FFF77F
:10A16000B3FCDAE501234370D7E5D0F848311B078B
:10A170007FF5D3AD837FC3F17F0313F0FF03039318
:10A180003FF4CBAD00F12001C27FA03004F07CF998
:10A19000A368DA7F1344002583F8A050D87F03F02A
:10A1A0003CFFA2680690431B18BF0123C2F844512C
:10A1B00017A9A0320CA80793FEF7CEFF1798FEF759
:10A1C000B4FE059B0493CDE90D55C7B21E4602951A
:10A1D000AB46A9460C9B23B1079A013B1344B342FB
:10A1E0007CD8069B002B38D124AB03EB860353F8B5
:10A1F000340CFEF79AFEC7B224AB03EB86034FF094
:10A20000000A09930AF1010308930FAB0093524629
:10A210000DAB31462846FEF7CFFE0D9B002B00F01C
:10A22000C1801968099B3A4653F8340C04F0B7F81A
:10A230008046A8B9029B013302930D9B18680E9BC0
:10A240008BB9FEF772FE039AC3B20493DB1B9A42EA
:10A2500001DDDBB20393D34631E0059FCCE7D14665
:10A26000DDF820A0CEE7FEF760FE049BC0B283427B
:10A2700038BF03460493039B0BB313AB00932846EC
:10A280000EAB4A463146FEF797FE0D9B18680E9BB3
:10A29000D3F800C007EB08025FFA88F1835C2BB9A2
:10A2A000039B8B4228BF0B46039308E01CF8022057
:10A2B0009A42F5D108F10108B8F5807FEAD10D9BEB
:10A2C0000E93089B002BCAD1434A04212046FFF776
:10A2D00035FA002D6AD14FF0FF3965E024AB4FF01D
:10A2E000000803EB860A0FAB009342460DAB3146E4
:10A2F0002846FEF761FEB8F1FF3F05D1364A04213A
:10A300002046FFF71BFA08E50D9B002B3FF405AD37
:10A3100019685AF8340C04F035F908F101080028DE
:10A32000E1D10D9B9D68002D45D1029B002B3FF490
:10A33000F4AC012B6FD12B783BB10FAB00934A46A5
:10A340000EAB31462846FEF737FE0E9B1868FEF727
:10A35000ECFDB84206D00E9B039A1968204639449A
:10A36000FFF720FAA368DA7F134493F8200003F084
:10A3700054FEA368002831D1D3F84821D70723D54C
:10A38000B3F8482160F30002A3F8482120212046B9
:10A39000FFF750FAA268B2F8483143F00103A2F87F
:10A3A0004831BAE4002DC0D10025BEE70D9B4FF027
:10A3B000FF39002BB9D00C9B079A0136F6B2134433
:10A3C0009E42FFF407AFB0E720212046FFF732FAA4
:10A3D000A3E400BFF2F4020010F50200DA7F9B7FD5
:10A3E0009A42BFF49AAC2046FEF7B5FDA268857884
:10A3F000D37F0133D3772046FEF7ADFD8378AB42A0
:10A4000005D1012104F11000FEF792FE85E42069D8
:10A41000FEF788FE81E4A368DFF8649300225A7790
:10A4200024AB03EB860306930BF1010305930FABFB
:10A4300000935A460DAB31462846FEF7BDFD0D9BF5
:10A440001968069B3A4653F8340C03F0A8FF70B91C
:10A45000029B013B02930D9BD3F800B0BBF1000FB0
:10A4600008D1A36883F81DB0029B002B3FD0DDF814
:10A4700014B0D9E74846FEF758FD049BA26818447B
:10A48000C3B2484692F819800893FEF74EFD079034
:10A490005846FEF74AFD089B079A181A5FFA80FA99
:10A4A000A068417FA8EB0208B8FBF3F3DBB2B1FB75
:10A4B000F3F203FB121301F1010C13F0FF0F80F80C
:10A4C0001DC00DD1CDF800B04B46A34A0721204650
:10A4D000FFF734F9514604F11000FEF731FEC3E7EF
:10A4E0005B469E4A07212046FFF728F9F2E72368DA
:10A4F0009B4A20460321FFF721F9A368974A20339E
:10A5000008212046FFF71AF92046FEF7C4FF0E9BEC
:10A51000039A196820463944FFF744F9FFF7FDBB59
:10A52000D0F848311E077FF5F8AB867F002E3FF448
:10A53000F4ABC37F002B3FF4F0ABF61A03F120011C
:10A54000F6B21F33721C0144184403F0EBFDA368FC
:10A55000DA7F013ADA779A7F013A9A77002E37D07C
:10A560002A468049206900F078FD2046FEF7F3FC7A
:10A570008278C3789A4213D1A268D37F29462033C8
:10A58000254613442046754AFFF7D8F855F8100FB2
:10A59000FEF7DAFD31462846FEF748FFFFF7BDBB60
:10A5A000714A6E49206900F058FD2069FEF7CCFD24
:10A5B000A268D37F203313442946684A2046FFF718
:10A5C000BDF86A4A6549206900F047FDFFF7A5BB61
:10A5D000674AF7E79DF82B305B2B40F0BB800223E6
:10A5E000C1E500234370D0F8483119077FF50DAC61
:10A5F0009DF82B30313B1B2B3FF68FAB01A252F85D
:10A6000023F000BF21A702002FA702004FA70200DE
:10A6100013A702001B9D02001B9D02001B9D020050
:10A620001B9D02001B9D02001B9D02001B9D020042
:10A630001B9D02001B9D02001B9D02001B9D020032
:10A640001B9D020075A6020081A6020085A60200DD
:10A65000D1A602001B9D020017A702001B9D02004D
:10A6600025A702001B9D02001B9D02001B9D0200EE
:10A6700033A7020001212046FFF78CF9FFF74DBBFD
:10A680000021F8E72046FEF766FC037842789A42FC
:10A69000054604D18178C27891423FF43EAB6A7995
:10A6A0009A4204F110060ED132492069012200F0CD
:10A6B000D4FC69793046FEF7B9FEA268D37F013336
:10A6C000D377FFF72ABB01213046FEF731FDF4E7CF
:10A6D0002046FEF740FC8379027801339A42054612
:10A6E00003D18378012B3FF418AB012A20690BD1E9
:10A6F000214900F0B2FC697904F11000FEF720FD59
:10A70000A268D37F013BDBE701221C4900F0A5FCD6
:10A71000F6E7032343702046FEF77CFFFFF7FDBA00
:10A72000032343702046FEF78BFEFFF7F6BA0323A0
:10A730004370D0F84831B0F8482103F0010383F0AA
:10A74000010363F30002A0F84821FFF7E6BA0323F0
:10A750004370FEE4002306E53CF5020043F50200E9
:10A7600042F50200A8EF020026F2020029F20200E0
:10A7700043F2020050F2020062F2020056F20200BE
:10A78000A3EF0200836870B51E78012E044620D125
:10A790004068036800219B6898470546B8B90821BE
:10A7A0002046FEF77DFC31462046FEF79DFC0A4917
:10A7B000206900F052FCA3680222DD8383F8205058
:10A7C0001A7003212368054A2046FEF7B7FF284682
:10A7D00070BD0825FBE700BF58F5020043F50200F5
:10A7E0002DE9F04F044689B07E48DFF81C921746E9
:10A7F0000E4603F0EEFE05467B4803F0EAFEA36832
:10A80000CDF80090794A5B6808212D1A2046FEF7A2
:10A8100095FFA3685868FEF788FB8046484603F01A
:10A82000D8FEA36808EB000292B299682046FEF7B2
:10A8300076FD6F4A00212046ADB2FEF77FFF3FB1A3
:10A8400036B14FF00C09B04609FB0769C84527D15E
:10A85000654803F0BEFE02300544ADB2614B009383
:10A8600005F10308634A082120462B461FFA88F8A1
:10A87000FEF764FF424660492046FEF750FD36B1C0
:10A880000C23DFF8709103FB0767BE4222D1A36857
:10A89000D3F80C80B8F1000F5AD109B0BDE8F08FA1
:10A8A000D8F80400FEF741FB8246D8F80000FEF716
:10A8B0003CFB5044A8420AD9D8F80400FEF735FB07
:10A8C0000546D8F80000FEF730FB0544ADB208F1AC
:10A8D0000C08BBE7D6E9002393B34AB30192424A7E
:10A8E00000920821454A2046FEF728FF7068FEF7CF
:10A8F0001CFB83463068FEF718FB82463A4803F09B
:10A9000068FEA5EB0B03A3EB0A031B1AD9B204F1F3
:10A910001000FEF715FC3A223949206900F09DFB32
:10A92000B16889B142462046FEF7F9FC0C36ACE727
:10A9300000932B464A4608212046FEF7FFFEEFE72C
:10A94000002AEDD00092F4E72069FEF7EBFBEDE77B
:10A9500000220392174604AE009603AB0121404645
:10A9600002F10109FEF728FB039D5DB12868FEF79F
:10A97000DCFAB84204D9039B1868FEF7D6FA87B20E
:10A980004A46E9E7B9F1010F87D01E4ADFF864A013
:10A9900029462046FEF7D2FE2A46BD1CADB203ABC7
:10A9A00000960121404602F10109FEF705FB039BD9
:10A9B000002B3FF472AF1B68009308212B465246D0
:10A9C0002046FEF7BBFE039B596831B17A1D92B257
:10A9D0002046FEF7A4FC4A46E1E72069FEF7A2FB09
:10A9E000F9E700BF76F2020068F502003DF50200CB
:10A9F00071F402007BF4020083F4020096F402007A
:10AA0000A8EF02009FF402004CF20200002211465F
:10AA1000FFF7E6BE022910B5044608D18368D3F8D3
:10AA200048319B0703D5BDE81040FFF7EFBF206911
:10AA3000054A064900F011FB2069054A0349BDE8B3
:10AA4000104000F00ABB00BF34F2020043F50200E0
:10AA500038F20200012906D0022906D18368D3F812
:10AA600048319B0701D5FFF7D1BF024A0221FEF70B
:10AA700065BE00BFF2F4020038B58368D3F84841E0
:10AA8000C4F340040D4634B100221146FFF7A8FE7E
:10AA90002546284638BD0029FBD05B68024A0221C2
:10AAA000FEF74CFEF5E700BF9CF30200012937B525
:10AAB0000546144604D103B0BDE83040FFF7A6BFF9
:10AAC000023918BF0121FFF7D7FF48B96368019326
:10AAD000044B0093044A236802212846FEF72EFE09
:10AAE00003B030BDF2E802000FF40200012907B5FF
:10AAF00004D103B05DF804EBFFF788BF02290AD147
:10AB000053680193084B00931368084AFEF716FE3A
:10AB100003B05DF804FB8CBF0121002103B05DF898
:10AB200004EBFFF7A9BF00BFF2E802000FF4020038
:10AB300011F1FF3110B518BF01210446FFF79CFF4A
:10AB400040B9054A0549206900F087FAA36845F233
:10AB500018021A8310BD00BF3DF2020043F5020047
:10AB600001292DE9F3410446154637D18668FEF7E1
:10AB7000C5FC38BBA36804F11005FA21284693F8F8
:10AB800014809F7DFEF7D4FA20691E49FA2200F056
:10AB900064FA2046FEF7B2FCA0B9A368197D71766D
:10ABA000A368A1EB08019B7D33762846C9B2FEF766
:10ABB0003DFC317EC91BC9B2284602B0BDE8F04158
:10ABC000FEF72ABCA36845F218021A830E4A042134
:10ABD000204602B0BDE8F041FEF7B0BD022994BFA7
:10ABE00000210121FFF748FF48B96B680193074B2B
:10ABF00000932B68064A02212046FEF79FFD02B013
:10AC0000BDE8F08150F2020037F40200F2E80200E1
:10AC10000FF402002DE9F04111F1FF3186B018BFA9
:10AC200001210546FFF728FF40BBAB68DFF85480E1
:10AC3000D3F840610446EEB1082C1BD03046002307
:10AC4000092203A900F073FF9DF81420A96830467B
:10AC500009230132A03100F06AFFAB68049EA033E3
:10AC60000093671C2346424600212846FEF766FDF6
:10AC70003C46E0E7AB68002283F8A02006B0BDE8C0
:10AC8000F08100BF2DF4020011F1FF3110B518BFA3
:10AC900001210446FFF7F0FE30B9A368B3F848215C
:10ACA00060F38202A3F8482110BD11F1FF3110B505
:10ACB00018BF01210446FFF7DFFE30B9A268B2F8E1
:10ACC000483143F00403A2F8483110BD11F1FF31BF
:10ACD00010B518BF01210446FFF7CEFE30B9A368B6
:10ACE000B3F8482160F3C302A3F8482110BD11F165
:10ACF000FF3110B518BF01210446FFF7BDFE30B982
:10AD0000A268B2F8483143F00803A2F8483110BDF8
:10AD1000022973B50D4694BF002101210446164651
:10AD2000FFF7AAFE014658B9022D0BD173680193B3
:10AD30000C4B00930C4A336829462046FEF7FEFC74
:10AD400002B070BDA368094AD3F8483113F0080F68
:10AD5000074B18BF1346074A204602B0BDE87040B3
:10AD6000FEF7ECBCF2E802000FF40200D308030087
:10AD700018F402001CF4020011F1FF3110B518BFE5
:10AD800001210446FFF778FE48B9A368C3F83801EB
:10AD9000E3685B68BDE81040186801F008B810BDB2
:10ADA0007FB511F1FF3118BF01210446FFF764FEA2
:10ADB0000546B8B9E3685B681E68304600F0F4FFEA
:10ADC000B268A168C0B2CDE9010264234343B3FB7A
:10ADD000F2F3DBB20093D1F83831034A294620461A
:10ADE000FEF7ACFC04B070BDD8F302001A60C06876
:10ADF0001A4601F0B3B8000010B4074C0378E35CC6
:10AE000023B104305DF8044B01F0C6BE0C305DF890
:10AE1000044B01F007BC00BF3C2C00204069054AF0
:10AE20000378D35C13B1043001F076BF0C3001F02D
:10AE3000C7BC00BF3C2C00200378044AD35C13B18C
:10AE4000043001F033BE0C3001F088BB3C2C0020F4
:10AE500010B504464069FFF7EFFFA368BDE8104056
:10AE60001868FCF78FBC000037B51A6004461A4614
:10AE7000006900F0FAFF054608BB6069134A0378D1
:10AE8000D35CFBB1043001F0CFFEC0B9FF230193C6
:10AE900001AA01236946206901F025F878B99DF8D7
:10AEA000042000996069FFF7A7FF636893F82930D1
:10AEB000054623B118B90199206901F08EF828469A
:10AEC00003B030BD0C3001F0F7FBDEE73C2C002076
:10AED00037B5FF23044600936A46012301A9C068E1
:10AEE00000F072FF98B9009888B163690B4D019921
:10AEF000C2B21878285C60B1181D01F0A1FE30B90B
:10AF0000A368224640F266611868FCF722FC03B091
:10AF100030BD03F10C0001F0DBFBF0E73C2C00201E
:10AF200073B50378FF26012B05460C4601960BD01E
:10AF3000BBB1022B06D1017AE06800F07FFF20460A
:10AF4000FFF7C6FF02B070BD017AE06800F076FF3F
:10AF50002B7A002BF3D063680020D3E900219047BF
:10AF6000EDE7017A206901F038F801AA012369466A
:10AF70002069019600F0B7FF019A22B1D2B2009980
:10AF80006069FFF739FF63680120D3E9002190472A
:10AF9000D8E7000038B5436893F8283004460D46DA
:10AFA0000BB383681868FCF7EDFB30F008030ED193
:10AFB00075B16069FFF740FF616860690022083180
:10AFC00001F0B4F868B96368012283F8292038BD1C
:10AFD000636893F8283043B12046BDE83840FFF756
:10AFE00077BF0620F3E70029E3D1064AA0680021D5
:10AFF000FCF7A4FB6368012283F828200028EBD02B
:10B00000E5E700BF1DAE020038B5044640680D46B6
:10B01000C0E90023002303852022083003F034FA1E
:10B020002C612946064A606901F080F8054628B976
:10B03000E06800F0C0FE206900F0BDFE284638BD83
:10B0400021AF0200826810B504462AB14369016845
:10B05000006998470023A36010BD0EB403B503999F
:10B0600021B104AB01AA019300F074F802B05DF8BD
:10B0700004EB03B070470A2938B504460D4602D1E7
:10B080000D21FFF7F8FFA3682268591CA160D55471
:10B09000D4E901329A4204D32046BDE83840FFF794
:10B0A000D1BF38BD2DE9F84F9946DDE90A4317466F
:10B0B000824688460A460126BA420FD24E4538BF1C
:10B0C0004E4613F0010B01D164B900240125B9F1FA
:10B0D000010F1AD909F1FF397D43F8E7B2FBF7F206
:10B0E0000136E9E79B070ED5B9F1000F0CBF3025FB
:10B0F0002025A642EAD2013C29465046FFF7BBFF75
:10B10000002CF6D1E1E72025F3E7B8FBF5F39F42E9
:10B11000E2D9DFF83C90B8FBF5F3504619F803107C
:10B1200005FB1388FFF7A7FFB5FBF7F3BD4207D276
:10B13000BBF1000F02D00CB1A64203D3BDE8F88FDB
:10B140001D46E8E720215046013CFFF794FFF2E757
:10B1500011F802002DE9F74F0546174688460029E9
:10B1600000F0308118F8011B49B92B7B002B00F04F
:10B170002981284603B0BDE8F04FFFF763BF2529BA
:10B1800040F0C080002698F800302D2B424608F190
:10B19000010823D0302B24D02B2B25D000242A2BA0
:10B1A00002F1010123D13B681A1D1B683A601C445F
:10B1B0000A4613782E2B26D101324FF00009104693
:10B1C00010F8011BA1F1300CBCF1090F1DD80A23A6
:10B1D00003FB0913A3F130090246F0E746F001062C
:10B1E000D1E746F00206CEE746F00406CBE711F8B9
:10B1F000013CA3F130000928DBD80A2202FB043409
:10B20000303C0A46CBE74FF0000912F8011B01F071
:10B21000FB0068289046F8D069290ED04AD85829F2
:10B2200064D006D825296DD098F80030002B99D12C
:10B230009BE7632962D06429F6D13A68D2F800A06E
:10B24000111D8AEAEA723960A2EBEA724FF0010B33
:10B25000092A5BDCCB4538BFCB462CB1BAF1000FD5
:10B2600001DB720700D5013CB30702D5B9F1000F2D
:10B2700004D0F00702D4002C4ED10024BAF1000F04
:10B2800052DACAF1000A2D212846FFF7F4FE06F033
:10B290000302022A05D1B9F1000F02D1002C47D1D7
:10B2A0000024CDE900464B460A2251462846FFF7C6
:10B2B000F9FEB9E773294CD014D87029B4D13B6892
:10B2C0001A1D3A60302128461C68FFF7D4FE782109
:10B2D0002846FFF7D0FE00220823CDE900322146A0
:10B2E0001022E3E775292BD078299DD139680A1DF2
:10B2F0003A60CDE900464B46102228E03B681A1D13
:10B3000019783A602846FFF7B6FE8DE70A230BF15D
:10B31000010BB2FBF3F29BE7A345AFD220212846F5
:10B32000013CFFF7A8FEA6E77107B0D52B21ABE7DC
:10B33000A345B6D230212846013CFFF79CFEADE77D
:10B340003968CDE900460A1D3A604B460A22096871
:10B35000ACE73B681A1D3A6016F00106D3F800A06E
:10B3600020D1BAF1000F03D0504603F032F906465F
:10B37000B44200D9C4B90AF1FF3A1EE028460136AA
:10B38000FFF779FE1AF806100029F7D1A642BFF49C
:10B390004BAF002C3FF448AF20212846013CFFF77B
:10B3A0006AFEF3E70026EDE720212846013CFFF77F
:10B3B00062FEDDE72846FFF75EFE1AF8011F00294E
:10B3C000F8D131E703B0BDE8F08F000007B50B46B8
:10B3D000A0B9154B5B886BB1144B1548154AC01AC0
:10B3E0000E23C0080093144B0004144940F00100E0
:10B3F000FBF751FE0E2003B05DF804FB6BB90A4B5E
:10B400005B88002BF6D0094B09480D4AC01AC008CA
:10B410000E2300930004084BE7E703601B68114606
:10B4200003B05DF804EB1847CC220020E0E60200F0
:10B4300040E70200CEF8020021F80200D3F8020033
:10B440004AF902002DE9F3419646B0B9504B5B88AA
:10B45000002B00F095804F4B4F48504AC01AC0084F
:10B460000E244F4B009400044E4940F00100FBF7BE
:10B4700012FE204602B0BDE8F0816AB9444B5B88F9
:10B48000002B7DD0434B4448474AC01AC0080E24C5
:10B4900000040094424BE7E7D0F800C0BCF1000F75
:10B4A0000DD13B4B5B88002B6CD03A4B3A483F4A5E
:10B4B000C01AC008082400040094394BD4E76BB9C3
:10B4C000334B5B88002B5FD0324B3348384AC01A6D
:10B4D000C008092400040094314BC5E74768D7F839
:10B4E0000480B3FBF8F708FB17376FB1284B5B8874
:10B4F000002B49D0274B28482E4AC01AC0080924DF
:10B5000000040094264BAFE78F070DD0204B5B88DB
:10B51000002B3BD01F4B2048274AC01AC0081024DC
:10B52000000400941E4B9FE712F0030F0CD0184B41
:10B530005B885BB3174B1848204AC01AC008102418
:10B5400000040094164B8FE7C768B9420BD34C1E1A
:10B5500005691C44AC4206D8DCF80C40A44602B095
:10B56000BDE8F04160470A4B5B887BB1094B0A4854
:10B57000134AC01AC008102400040094084B73E753
:10B580000E2476E7082474E7092472E7102470E794
:10B59000CC220020E0E6020040E70200CEF80200E4
:10B5A00033F80200D3F8020050F9020044F9020017
:10B5B00003F9020056F9020080F9020098F902002E
:10B5C000BBF90200F7B5A0B9374B5B88002B63D0FD
:10B5D000364B3748374AC01AC0080E24364B009401
:10B5E0000004364940F00100FBF755FD204603B04A
:10B5F000F0BDD0F800C0BCF1000F0DD12A4B5B8824
:10B60000002B4BD0294B2A482D4AC01AC0080824C9
:10B6100000040094284BE4E76AB9234B5B88002BB5
:10B620003ED0224B2248274AC01AC00809240004F1
:10B630000094214BD5E74768D7F800E00EF1FF37BB
:10B640000F420CD0184B5B8863B3184B18481E4A46
:10B65000C01AC008102400040094174BC1E7C76843
:10B66000B9420CD34C1E05690EFB0244AC4206D80D
:10B67000DCF81040A44603B0BDE8F04060470A4B38
:10B680005B887BB1094B0A48104AC01AC0081024D5
:10B6900000040094084BA4E70E24A7E70824A5E7BC
:10B6A0000924A3E71024A1E7CC220020E0E6020051
:10B6B00040E70200CEF8020046F80200D3F802008C
:10B6C00044F9020003F9020059F802007FF8020071
:10B6D00029DF704728DF704770B503689D6886B022
:10B6E00004460E466DB114220021684602F0F5FEB4
:10B6F000A3680593237901962BB1012B0DD06846E1
:10B70000A84706B070BD01238DF80030236902936D
:10B71000E368039363690493F1E702238DF8003033
:10B72000E3681B030293F5E7084670470020704763
:10B73000024B187A003018BF01207047182C0020E7
:10B74000034B187A0122B0FA80F05A74400970470E
:10B75000182C002008B510461A4602F095FE00206D
:10B7600008BD000008B514220021044802F0B5FE0F
:10B770000348FDF716FA002008BD00BF182C002072
:10B780008023002010B5094C094B43602046FDF78B
:10B79000F6FA40B902F032FA1C2320748C220549D3
:10B7A0000548FDF7EBF9002010BD00BF182C002064
:10B7B000F0F902008C2B00208023002070B5244C6F
:10B7C000244E237A25463BB923492448FDF745FA00
:10B7D000306008B9606070BD346802232B72237931
:10B7E00073B1012B24D020460321FFF775FF0023FE
:10B7F0002B726B6018491948BDE87040FDF758BAC4
:10B80000D4E90523D21AB2F5805F28BF4FF48052E5
:10B81000D4E903109208012A38BF012219441844C0
:10B82000FFF756FF50B11128DDD101232B72D2E76B
:10B83000D4E903031844FFF74DFFF3E72B7C002BFB
:10B84000C9D10146BDE87040022000F009B800BF30
:10B85000182C0020302C00202C2C002080230020CD
:10B8600038B5831E012B45D8234C237A002B41D0B9
:10B87000022B09D1032830D0204B1B680022E26044
:10B880001A793AB1012A22D0637C7BBBBDE83840EB
:10B89000FFF794BFD3E905128D1AB5F5805F94BF09
:10B8A000521902F580529A619142EDD102284FF06F
:10B8B000000308BF19462372104B18BF0D211868EA
:10B8C000FFF70AFF0E490F48FDF7F2F9DCE71A69A6
:10B8D00001321A615B699A42E7E7E3680133082B9A
:10B8E00001D8E360D0E70023E360DFE7BDE838403C
:10B8F00002F074B938BD00BF182C0020302C002095
:10B900002C2C00208023002000F0FD03012B08D107
:10B91000044B00225A74421E504250411874FFF7E3
:10B920004DBF7047182C002010B5064C201DFDF7A8
:10B9300026FA28B9637C1BB9BDE81040FFF73EBF6B
:10B9400010BD00BF182C00202DE9F34180460D46A4
:10B950000F4801A916461F46FDF745F90446A8B150
:10B960001C22002102F0B9FD2D0B0123237101A936
:10B97000C4F80080A760E56066610548FDF75DF9E1
:10B98000FFF7D2FF002002B0BDE8F0810420FAE703
:10B99000802300202DE9F74381468846104801A9FD
:10B9A00017461E46FDF71FF90446B0B11C220021C0
:10B9B00002F093FD00250A9BA36001A92571C4F83C
:10B9C0000090C4E9037866610548FDF736F9FFF792
:10B9D000ABFF284603B0BDE8F0830420FAE700BFC0
:10B9E000802300202DE9F047B0F806904479D2F882
:10B9F00000A09DF8208009FB04F4043C06460AEBF5
:10BA00000300A0420F4688BFA4EB030A191DC2F829
:10BA100000A0B1FBF9F509FB15114DB9A9EB010423
:10BA2000544528BF5446BAF1000F04D1BDE8F08751
:10BA30003668013DF1E704317B1970182246B8F1F0
:10BA4000000F0ED001461846AAEB040A02F01CFDB6
:10BA5000D145254436684C464FF0000128BF544676
:10BA6000E1E71946F0E7FDF7EFB9F8B54679014689
:10BA7000721E0546002393422D6803D30024A6427C
:10BA800002D8F8BD0133F6E70F682846FDF717FA2C
:10BA900001343946F3E72DE9F843068BCD1C074600
:10BAA000FDF7E9F9043E35440446B5FBF6F5F0B17F
:10BAB0004FF48073EDB28380C680013D07608146FC
:10BAC0004FF00008A84512D23846FDF7D4F90646D3
:10BAD00048B163790133637108F10108C9F80000C6
