:020000022000DC
:1070000000000420757302005D7302005F730200CC
:1070100061730200637302006573020000000000E8
:107020000000000000000000000000006773020084
:1070300069730200000000006B7302006D730200B0
:10704000D1A702006F73020011B202006F73020039
:107050006F73020025B00200DDAA02006F73020008
:107060006F7302006F7302006F7302006F73020090
:107070006F73020031B302006F7302006F7302007E
:107080006F730200D18202006F7302006F730200FF
:107090006F7302006F730200794103006F73020087
:1070A0006F7302006F7302006F730200C5B40200B9
:1070B0006F7302006F730200000000000000000008
:1070C0006F7302006F7302006F7302006F73020030
:1070D0006F7302006F7302006F7302006F73020020
:1070E0006F7302006F730200B56E030000000000B2
:1070F000000000006F730200000000006F730200C8
:10710000000000000000000000000000000000007F
:10711000000000000000000000000000000000006F
:10712000000000000000000000000000000000005F
:10713000000000000000000000000000000000004F
:10714000000000000000000000000000000000003F
:10715000000000000000000000000000000000002F
:10716000000000000000000000000000000000001F
:10717000000000000000000000000000000000000F
:1071800000000000000000000000000000000000FF
:1071900000000000000000000000000000000000EF
:1071A00000000000000000000000000000000000DF
:1071B00000000000000000000000000000000000CF
:1071C00000000000000000000000000000000000BF
:1071D00000000000000000000000000000000000AF
:1071E000000000000000000000000000000000009F
:1071F000000000000000000000000000000000008F
:10720000354936480A1A02D0072291438D4634493F
:1072100034480A1A06D00722914381F309880222D2
:1072200082F3148830483149314A00F044F831483B
:107230003149324A00F03FF831483249324A00F0D1
:107240003AF832483249334A00F035F83248334987
:10725000334A00F030F833483349344A00F02BF811
:1072600033483449344A00F026F83448344900227F
:1072700000F02CF833483449002200F027F8334856
:107280003349091A082902DB002202604160314AB1
:1072900090471F481F49884205D00268043003B454
:1072A000904703BCF7E700208646EC46002000210B
:1072B000294A9047FEE7884207D0521A05D0037842
:1072C00001300B700131013AF9D17047884202D088
:1072D00002700130FAE770470000042000E003204C
:1072E0000000042000000420A402040074220020F6
:1072F000E8220020D0730200D0730200C0AC03006B
:10730000A40204007422002074220020B4AE030002
:10731000B4AE0300B4AE0300B4AE0300B4AE0300D9
:10732000B4AE0300B4AE0300B4AE0300A402040084
:1073300018030400E8220020E8220020E8220020B0
:10734000DC630020DC630020DC630020DC630020C1
:10735000DC8300209D73020055D70200FEE7FEE7A4
:10736000FEE7FEE7FEE7FEE7FEE7FEE7FEE7FEE7F5
:1073700000F002B8FFF7FCBF0F484FF00701884349
:1073800085460E4880470E48016841F4700101604F
:10739000BFF34F8FBFF36F8FFFF732BF09480A4922
:1073A0000A4A884207D0521A05D0037801300B7080
:1073B0000131013AF9D17047000004203DDB0200A1
:1073C00088ED00E0A0AE03006022002074220020BF
:1073D000022005F0CFB800002DE9F04781460D46A8
:1073E00005F0F6F80328044604D8012D04D025B38F
:1073F000022D2FD0BDE8F087194D47003A18A91883
:10740000AE5C4A7852B1DFF86880164842464FF4C5
:10741000804100F002FD08B988F800903B192B4428
:107420009A78114B1A55002EE4D0104B1B68002B94
:10743000E0D03046BDE8F04718470A4800F005FDA7
:10744000074B04EB440213449E78074B1B5DB34289
:10745000D0D1E8E7024B00EB40041C446678E2E739
:1074600050230020102300206923002064230020E3
:10747000E822002002210078FFF7AEBF08B5094BD3
:107480001B7853B1002005F043F8012005F040F8C7
:107490000320BDE8084005F03BB8BDE8084005F012
:1074A0004BB800BFE9220020F8B57B4C2378054695
:1074B0001BB100232370FFF7E1FF172D00F2888036
:1074C000DFE805F00C17174354657680888D888DAA
:1074D000959A9A9A9A9AC4C9D1D9E4E4FFF7CEFF53
:1074E0006E4800F0B2FC6E4B002204461A70204633
:1074F000F8BD002004F0E4FFF8B1002005F008F822
:10750000022D0CBF4FF4E1614FF47A61644B1D70A2
:107510004FF400404FF47A740025E0FB01454FF42E
:10752000FA620023204629460CF072FF0022014631
:107530005A48BDE8F84000F070BC04F0D5FF022DB9
:107540000CBFC8214FF4C871E0E7002004F0B8FF79
:1075500040B1002004F0DCFF4FF44871504B03228F
:107560001A70D5E704F0C0FFC821F7E7002004F047
:10757000A7FF38B1002004F0CBFF4FF47A61484BED
:107580000422EDE704F0B0FF4FF4C871F7E70020E4
:1075900004F096FF48B1002004F0BAFF404B0522EA
:1075A0001A7040F6CD410022C2E704F09DFFF5E7D6
:1075B000002004F0DFFF3A4B06221A70002240F24E
:1075C0006661B5E7002004F08FFF354B07221A7083
:1075D00000248CE70120207004F0CCFFEEE70120AE
:1075E000207004F0C7FF00224FF40051A0E704F020
:1075F000B2FF2B4B0C22EAE72A482B4E00F025FC69
:10760000D5F1110504461CD0D8B9012D13D0C823DB
:107610005D434FF400474FF47A7000214FF4FA6253
:107620000023C7FB05010CF0F3FE224601461D486E
:1076300000F0F3FB0446022004F056FF01233370F0
:1076400055E7022004F064FF0023F8E7FFF716FF78
:10765000134B1222BBE7FFF711FF002004F044FF99
:107660000F4B1322B3E7FFF709FF012004F03CFFA3
:107670000B4B1422ABE7FFF701FF002004F034FFAF
:10768000012004F031FF064B1522A0E704F063FF50
:10769000034B1D709CE700BF6023002030230020B7
:1076A00068230020F0220020E9220020044B1B6800
:1076B000DB0703D5034B1878FFF7F6BE704700BF12
:1076C0005C23002068230020002910B514BF032488
:1076D000002404F08FFF1F288ABF0A4B4FF0A043FD
:1076E00000F01F0003EB8000D0F8002722F44032A6
:1076F000C0F80027D0F8003743EA0443C0F8003749
:10770000002010BD00030050032801D804F04CBF36
:1077100000207047044B1B6813F0010301D0FFF7F2
:10772000C3BE1846704700BF5C23002038B51C4B11
:1077300018601C4B10F00204054619601AD01A4B51
:107740001A480E221A700F22DA7010229A71112232
:107750005A72042140F2333200F0EEF9044648B97F
:1077600000F040FA044628B90146114A114800F0D9
:1077700049FB0446EB0711D5012004F041FF6CB929
:1077800021460D4A0D4800F03DFB044630B90C4A35
:107790000C480121BDE8384000F034BB204638BD1C
:1077A0005C2300206423002050230020B4AE03009B
:1077B00075740200D8AE0300AD760200DCAE0300A3
:1077C000D1730200D4AE0300032813D8012A0BD1D1
:1077D000012908D100F10E02D2B200EB40000C4B9F
:1077E0001A540020704700220129F6D04BB24BB149
:1077F000022901D007207047054B00EB40001844D8
:107800004270EEE7024900EB400008448270E8E76E
:1078100050230020032802D80121FFF755BF06207E
:10782000704708B5012202210020FFF7CDFF08B103
:10783000072810D1072202210120FFF7C5FF08B158
:10784000072808D100210A220846FFF7BDFF10B122
:10785000072808BF002008BD0388102B10B502D0F0
:10786000112B1ED010BD1A4C2168B1B90122084657
:10787000FFF7AAFF08B1072824D10722022101201F
:10788000FFF7A2FF08B107281CD104220221002023
:10789000FFF79AFF08B1072814D12368013323604A
:1078A000E0E70B4A1368013B1360002BDAD1FFF7C6
:1078B000B8FF0028D6D0074B1B68002BD2D0BDE8FC
:1078C00010401847034B1B68002BE6D09847E4E7AD
:1078D000742300207023002008B50020FFF79AFFD2
:1078E00008B1062806D10120FFF794FF10B1062841
:1078F00008BF002008BD00000D4B10B518600C46F5
:1079000029B10120FFF700FF40B102232370094B8A
:107910001B6853B9BDE81040FFF783BFFFF7F4FEC3
:1079200008B10B23F2E72070F1E7002010BD00BF83
:107930007023002074230020C30710B507D4F02360
:107940004008054A145C23401943115410BD090135
:10795000C9B20F23F4E700BFA823002030B5094BBC
:107960001C78094B196800239C4202DC0022104657
:1079700030BD11F83350854201EBC302F7D001331B
:10798000F2E700BF78230020C823002070B504462A
:107990000D46FFF7E3FF30B1436823B12946204687
:1079A000BDE87040184770BD034B044819680022B9
:1079B000490800F032BA00BF7C2300208023002059
:1079C00010B5C0B2FFF7CAFF0446007803F078F89C
:1079D00063785A1E53425341834208D1044BD3E982
:1079E0000023134303D1BDE81040FFF7DDBF10BDF6
:1079F000A023002037B54308364AD35CC2074CBFEA
:107A00001B0903F00F0304460D46042B36D8DFE8AC
:107A100003F003262D393D0081B30121FFF78CFFD0
:107A200000230DF107008DF8073000F0E5FA012280
:107A3000A4F12003C4F12000274902FA03F322FA3B
:107A400000F0034302FA04F4D1E900201443034395
:107A5000C1E900439DF8070000F0F2FA0EE00029AA
:107A600018BF02212046FFF767FF07E041B103215D
:107A7000FFF762FF01212046FFF788FF03B030BD0A
:107A80000121EFE70029F9D10421EBE709B1032136
:107A9000E8E7FFF751FF29462046FFF777FF0DF192
:107AA00007008DF8075000F0A7FA0122A4F1200387
:107AB000C4F12000084902FA03F322FA00F003435C
:107AC00002FA04F4D1E9002022EA040420EA0303C4
:107AD000BEE700BFA8230020A02300202DE9F0412D
:107AE000124E134F00243378A34208DC114BD3E924
:107AF0000023134318D0BDE8F041FFF755BF3D68A0
:107B000005EBC40815F8340002F0DAFF98F801100C
:107B10004B1E594259410A1A514215F8340051413D
:107B2000FFF768FF0134DEE7BDE8F081782300202D
:107B3000C8230020A0230020092AF7B505460C46DB
:107B400016463DD902F0ECFED8B11E4B1E481D6012
:107B50001E4B1F4F1C701F4B002120221E600CF07B
:107B60009DFD1D4B00200021C3E90001013CE4B252
:107B70000326FF2C0BD1194A1948002100F042F9C5
:107B800003E002F095FE0028DFD003B0F0BD20B284
:107B90009DF806308DF8046005EBC00223F0070362
:107BA0008DF8063001A9937815F830008DF805306E
:107BB0003A4602F0BFFE013CE4B20028D9D0E4E727
:107BC0000720E2E7C8230020A82300207823002014
:107BD000C17902007C230020A0230020DD7A02006E
:107BE000E0AE030070B5084D084E00242B789C428F
:107BF00001D3002070BD3368012113F8340002F076
:107C000015FF0134F2E700BF78230020C8230020CD
:107C10001FB50021039001AA44F20100CDE9011132
:107C200000F004F805B05DF804FB000010B572B672
:107C300005F0C2F804F002FF0028FBD1104B114CF4
:107C40001149E41AE408240444F0010005F060F846
:107C50000E4B1B68DB0700D500BE0D4944F0020047
:107C600005F056F8BFF34F8F0A490B4BCA6802F470
:107C7000E0621343CB60BFF34F8F00BFFDE700BF4F
:107C800088AD0300C8AD0300EFAE0300F0ED00E0E7
:107C9000FBAE030000ED00E00400FA05D0E902238A
:107CA000D1E90201994208BF90422CBF0120002077
:107CB000704700002DE900480C4800F0F4FA0C4B26
:107CC000D3E9002312EB000B43F1000C094BD3E97D
:107CD00000239C4508BF93455846614603D21BF1DB
:107CE00080704CF10001BDE8008800BF74220020C4
:107CF000D02300204824002037B505460C460A480A
:107D000001A901F094FA60B10570446001A9064828
:107D100001F0B7FA18B1054800F0CAFA002003B024
:107D200030BD0420FBE700BF342400207422002073
:107D3000194B1B782DE9304804461BB9002528460D
:107D4000BDE830880028F9D0037F03F0FF05002B41
:107D5000F4D0FFF7AFFFD4E90223994208BF904265
:107D600015D3236903B92377D4E9053098472169EE
:107D70000029E3D0237F03F0FF05002BDED0D4E9F8
:107D8000022312EB010B43F1000CC4E902BC2146B3
:107D9000024802F030FAD2E7D82300200CAF0300EB
:107DA00013B5114B11491868019008235822104847
:107DB00001F008FA044698B90E4A0F4801A900F0EC
:107DC00063F9044660B901210B4800F04FFA012322
:107DD0000A4A0948194600F0B5F9094B01221A7000
:107DE000204602B010BD00BF08AF0300DC23002016
:107DF00034240020657E020074220020FFFF7F00F3
:107E0000D82300203AB103685A614A1E51425141B9
:107E10001961002070470720704738B5037F04467A
:107E20000D4683B98261FFF745FF421941F1000316
:107E3000C4E90223236903B1256121460020BDE87E
:107E40003840FFF759BF002038BD002301460377B3
:107E50000120FFF751BF0000014800F024BA00BF25
:107E6000742200202DE9F04F85B0074600F006FA95
:107E700040B1594AD2E9003113F1807341F1000158
:107E8000C2E900310021384600F007FA38B1534CFE
:107E9000236823B12068FFF74BFF002323600121F3
:107EA000384600F0FAF920B1FFF704FF4C4BC3E964
:107EB000000103A94B48494D4B4C4C4E01F0F1F9E0
:107EC000002845D1DFF820A1444CDFF828B1504606
:107ED00002F0A7F92368002875D07BB12368D0E9A8
:107EE0000201D3E90223994208BF90422DD22368B0
:107EF0001B7F1BB12168504602F07DF9504602F00D
:107F00008AF9D0E9026305460193FFF7D3FE019B8E
:107F1000B6EB000863EB0109B8F1010F79F100033A
:107F200044DB334EB0453FD9FFF796FF82194FF43B
:107F300096030021584600F025F900283ED1236819
:107F400013B9384600F0F6F8256005B0BDE8F08FAB
:107F50000378012B1DD05BB1022B11D14FF0000A29
:107F6000204602F058F9002833D080F81CA0F7E72B
:107F700041680B7F23B901230B77204602F03BF9C0
:107F800003A9184801F0B8F903A9164801F089F9C6
:107F900096E741682B68994202D100232B60EFE7F6
:107FA000204602F041F9EBE7AA68C0E700215846F5
:107FB00000F069F92846FFF7BBFE01E00D28F9D073
:107FC0000023236083E7002BBFD1384600F0B6F8CA
:107FD000BBE701233370D3E7D023002050240020D7
:107FE00048240020342400200CAF0300D8230020B4
:107FF000FFFFB4007422002070B5EFF3108672B654
:108000000C4A946801239CB993600B4B0B4DD3F839
:10801000801029401160C3F88050D3F8841051605B
:108020004FF0FF32C3F88420047006B962B670BD09
:108030000370FAE75424002000E100E0FC06FFBDD5
:10804000084B9A6810B55AB150B9EFF3108172B667
:10805000054A1C6814605C685460986001B962B697
:1080600010BD00BF5424002000E100E0435882B05E
:108070003BB10023435043580193019B012002B0C0
:1080800070471846FBE70000F8B5224B4679224DB1
:1080900043F82620214A224BF7009B1AEA19DB08F5
:1080A00012791B0432B143F002001E4904F030FE85
:1080B0000820F8BD02680C88C2F8084590F9042031
:1080C0008978002AA8BF02F1604CD4B2BABF04F08C
:1080D0000F0EDFF858C00CF5614C4FEA4111C9B2E0
:1080E000B4BF0CF80E108CF8001352090121DFF810
:1080F00040C004F01F042F4401FA04F44CF822405D
:10810000397145F83600084943F0030004F000FED9
:108110000020CEE7682400206024002088AD030002
:10812000D8AD030036AF030058AF030014ED00E0F4
:1081300000E100E0036801221A6070470368012231
:108140005A60704773B501F15005AD000068ADB2DB
:108150004FF480348C400026C0F80843C0F84843F0
:10816000465101F5A8714559019522F07F42019DC4
:1081700040F82120C0F844430BB1C0F8044302B0DA
:1081800070BD00002DE9F74F884699464FF48036C0
:10819000036808F150058E404FEA880AAD00C3F825
:1081A0004863ADB2C3F80863074603EB0A00D3F88F
:1081B00004154FF0000B22F07F44D0F84025C0F8A2
:1081C000401543F805B05B590093009B531A23F008
:1081D0007F43012B0BD1244B4FF4806043F001030C
:1081E00098473B6843F805B05B590193019B386899
:1081F000D0F80455C0F84463631B23F07F43012B80
:108200001AD108F5A878184B013440F8284043F0FB
:1082100001034FF4806098473B68D3F804359D42D2
:1082200008D13B680020C3F84463C3F8046303B07B
:10823000BDE8F08F0D20FAE78244C9F1FF19CAF8B2
:108240004045D0F80435E21A013A22F07F4209F5A0
:108250007F499145EED3002AE3D10134CAF8404565
:10826000D0F804259342DBE730AF03000368022215
:10827000C3F8442309B1C3F8042370474FF4827153
:108280000068FFF7F3BE4FF4803303FA01F103688F
:10829000C3F84813C3F8081370475031890089B2F6
:1082A0000068FFF7E3BE0368D3F8040570470000D9
:1082B00090F9043001215A0903F01F0301FA03F376
:1082C0004032024941F82230704700BF00E100E02F
:1082D000024B034A1B681068184700BF682400203F
:1082E0006024002070B5064D0646002455F8043B76
:1082F0000BB1304698470134042CF7D170BD00BF54
:1083000078240020033080B240F2FE33984230B52A
:108310001FD8134B1A783AB91C895D892C44044440
:10832000A4B2B4F5806F0AD91A7DAAB99A8BDC8BF6
:108330002244024492B2B2F5806F0DD801220A8025
:108340001446142202FB04335A8910445881002039
:1083500030BD48F20860FBE748F20660F8E700BF6E
:10836000AC2400200B4A0C4B5188142000FB013137
:10837000CB6833B90420496810700122074801F026
:1083800065BB05230649137002238B80012200235D
:108390000968F3E790240020AC240020602200202C
:1083A0007425002007B5002305490093054A096894
:1083B0000548082301F0B4FA03B05DF804FB00BFE0
:1083C0007425002078AF03006022002007B5002349
:1083D000009301460823034A034801F0A1FA03B0C1
:1083E0005DF804FB70AF03006022002013B500238A
:1083F0000C46009301460423074A084801F090FA0E
:1084000038B9074B142202FB04340123237402B051
:1084100010BD48F20D60FAE76CAF03006022002047
:10842000AC24002037B50A480A4B42689C8819687A
:1084300053880325033305709BB2002000909B00F6
:1084400001EB8401044801F06BFA03B030BD00BFBA
:1084500090240020742500206022002010B50146E1
:10846000044800F0E4FE1C22044600210CF016F93A
:10847000204610BD6025002068B10268084B9A4272
:1084800009D14068074B984207D0013398420CBF8E
:10849000012003207047032070470020704700BF71
:1084A000DEC0ADDEFE011EF14388033300EB830323
:1084B00099420BD382884FF6FF739A4208D0038803
:1084C00033B18068431C58425841704702207047BE
:1084D000012070472DE9F8430223DFF860800B800C
:1084E0000D46174600F5805600F108044FF00109CB
:1084F000B4420FD2236801330CD031462046FFF737
:10850000D3FF48B10FB187F8009002280BD14FF488
:1085100080632B80BDE8F883A368D8F800209342DD
:1085200001D9C8F800302B886288033313442B80AC
:108530006388033304EB8304DAE700BFA42400203C
:10854000154A142303FB002070B50B6844680D46E0
:1085500004F58056ABB15C88033403EB8404B44269
:108560000DD2236801330AD031462046FFF79CFF25
:1085700001280BD010F0FF0F05D00228EFD100200A
:1085800003E00834EBE72C60012070BD63880333FF
:1085900004EB8304E3E700BFAC240020436873B519
:1085A00004460D466BB3244AD1688B4229D3126925
:1085B000934226D813F0030023D1204A218912893F
:1085C00091421ED121689A6891421AD11C4A516881
:1085D0008B4203D901F580518B420DD392699342AE
:1085E0000CD902F58052934208D201232B80B0FAB5
:1085F00080F0400902B070BD0346F7E748F2096019
:10860000F5E700232B801E46019601A92888FFF775
:1086100097FF30B92B8801339BB2012B2B80F3D904
:10862000E8E7019B226899689142EED16360034BB1
:108630001B892381DEE700BF6022002090240020F8
:10864000AC2400202DE9F8431C461D4B1B78064640
:108650000F46154673B382B37CB3DFF86C804FF0DE
:108660001409A388012B02D948F2096020E009FB14
:1086700003F318F803302BB92146A088FFF760FFF9
:1086800020B92060A3880133A380EAE723681EB1E4
:10869000998832889142EFD11FB119883A88914266
:1086A000EAD19A68C5E90023064B1B892B8100207B
:1086B000BDE8F88348F20160FAE748F20460F7E7A2
:1086C0008824002090240020AC24002008B5074B0B
:1086D000191D5888FFF734FF18B1BDE80840FFF7AF
:1086E000A1BEBDE80840FFF73DBE00BF90240020BA
:1086F0002DE9F04FA34FDFF8B09289B00646B84697
:108700003B6823B94946A04800F0CBFD3860D8F853
:10871000005029784B1E052B00F2FE80DFE813F095
:10872000060060006000F200F20064012EB1974B79
:1087300000225A604FF40644F0E02B79032B1DD839
:10874000DFE803F015022B3691490B78022B08461F
:108750001AD00B7D022B4FF0010317D11422534383
:10876000C2180020C8545068FFF730FE03E0012310
:108770002B71FFF717FE002800F0BE80834B00220C
:108780005A6048F20D64C9E00023E7E77F4A13709E
:108790000023536041F61D54C0E07E497E4800230B
:1087A00002222B718A800122096801F04FF9E2E769
:1087B000784C00262E712068754DFFF707FE774B29
:1087C000D4F800C05A8814235343EA18EE54516871
:1087D0002160A188C2F804C011810222A280CAE7E8
:1087E000B5F814A0AA7DDFF8A8B1AEB1022AEB88D3
:1087F00006D9142101FB0AB1DA1C088902440A8156
:10880000142202FB0ABAC3F57F43BAF80A20FD33EB
:108810001344AAF80A308DE7142303FB0AB318891E
:108820005C6804EB8004062A69D8DFE802F0274E72
:1088300036441D5A040041F61D54AA7DEB88022AD5
:1088400006D9142101FB0AB1DA1C088902440A8105
:10885000142202FB0ABAC3F57F43BAF80A20FD339B
:108860001344AAF80A3059E04D484E4900234360AA
:10887000AB690360FFF792FE002874D00223AB754A
:10888000002300930423EA182146434801F048F8E6
:10889000002831D048F20D64CFE72B69002B14BFBC
:1088A00003230123AB750023009305F10C0204237D
:1088B00004F10801E9E70123AB750022EB8800927F
:1088C0009B002A6904F10C01DFE703290CBF052393
:1088D0000623AB7500230093042305F10802E11879
:1088E000D3E70623AB752F4B19882D4B5868FFF73C
:1088F0007DFD04460028A0D109B0BDE8F08F48F204
:108900000E649AE7002E7FF415AF2B79012B4DD022
:10891000EBB1022B3FF43EAF48F20E64142200216B
:1089200003A80BF0BBFE41F61D539C4208BF002478
:10893000D8F8003004941A78023A042A00F2088128
:10894000DFE812F0E900F5001801200127010223F9
:108950002B710DF10A01EB68039303A8CDE90466BE
:10896000FFF71CFE10B948F20964D7E70498BDF878
:108970000A108388EB8003882B81FFF737FD0446BC
:1089800029E000BFA82400206025002088240020C2
:10899000AC240020742500206022002090240020B8
:1089A0006C24002080250020A0240020DFF800A2F5
:1089B00003AA53463146A81DFFF744FE044668B992
:1089C000BAF804100498FFF711FD044648F2096351
:1089D0009C423FF4DFAE002CA0D18DE70822314647
:1089E00050460BF05BFEF1E7002E7FF4A3AE6B4B1D
:1089F0001A7BAAB11E731A78013A062A8CD801A1F3
:108A000051F822F0AB8A0200D18A0200EF8A0200FC
:108A1000F58A020019890200FB8A02000D8B020010
:108A20001A78072AE7D801A151F822F04D8A0200EE
:108A3000F7890200F7890200738A0200878A020020
:108A4000A78A0200A78A02006F8A02001A89544985
:108A500001321A8100225A801A730A78B2FA82F21D
:108A600052099A720A7DB2FA82F25209DA7201222E
:108A700007E04C4958688A884088033202448A805B
:108A800002221A70B7E7464C5A884649142505FB5E
:108A900002420868546850608888108102228A80E7
:108AA0000C600622EDE70722EBE79A7A32B9DA7A10
:108AB0008AB900221A705A805A606BE6384900223F
:108AC0009A72CA68002AF2D1097C0029EFD05A8034
:108AD000FFF7FCFD53E70022DA72314A116A0029E0
:108AE000E7D192F82420002AE3D00122EFE7FFF734
:108AF00099FC44E7FFF736FC41E7294A5B881421DB
:108B000001FB03235868FFF761FC38E700225A6035
:108B1000FFF748FC33E701228DF80C201A89ADF8E5
:108B200018209A88DB68ADF81A20059310E002221D
:108B30008DF80C201A89ADF818209A88ADF81A2003
:108B4000DA689B7D05929A1F534253418DF81C3081
:108B500003A8FFF7C7FB002649461348C8F8006082
:108B600000F0CAFB0121114800F079FC00287FF4D5
:108B7000C7ADC1E603228DF80C20DA88ADF81820C5
:108B80001A89CFE70422DB888DF80C20ADF8183065
:108B9000DEE705238DF80C30DAE700BF90240020D3
:108BA000AC240020742500206025002070250020C2
:108BB000842500204068FFF79BBD000008B5012117
:108BC000044800F036FC18B9BDE80840FFF790BD36
:108BD00008BD00BF702500202DE9F3419846374BB2
:108BE0001B7806460D46002B5CD000295DD0098815
:108BF0004FF6FF7399425BD06B88002B58D06B689F
:108C00009B0758D14AB92F890DF102013846FFF769
:108C100079FB30B102B0BDE8F08113885788ADF818
:108C2000023001A8FFF71AFC044660B9BDF8023013
:108C3000234A142101FB032358890338C01B5881A0
:108C400048F20760E6E700238375BDF802308382AF
:108C50006B68036180F8008001211A4800F0F4FB82
:108C60002B882381B8F1030F6B88A38004BF0423F2
:108C7000A3754FF0000508BF3368E06008BFA3612B
:108C8000E780658101A9104800F0FBFA36B1E3687E
:108C900033600E4B75601B89B5723381FFF78EFF11
:108CA0000020B7E748F20160B4E748F20460B1E79A
:108CB00048F20360AEE748F20260ABE78824002088
:108CC000AC240020A4240020602500209024002053
:108CD00008B5084B1A68042A09D01968064A42F8F0
:108CE00021000121184600F0AFFB002008BD48F22A
:108CF0000B60FBE77C250020782400202DE9F04F55
:108D000089B01422002103A80BF0C8FC784A13781C
:108D100003F0FF01009190463BB103A8FFF7E2FA90
:108D20000027384609B0BDE8F08F101D00F0A2FB07
:108D30000028F5D140F6F8734FF080521B685C1C98
:108D400008BF6C4B6C4C08BF1B6811695269581CFA
:108D500008BF02FB01F323610022A3F540536749DA
:108D6000E360204600F0A8FD019407460028D8D112
:108D70001C238C2262496348DFF89CB100F022FA80
:108D8000BA463D464FF003093C46019BDE68564417
:108D90003046FFF771FB012860D042B2002A4AD06A
:108DA000032827D13268531C02D0574B9A4234D142
:108DB000321D06F58051106801302ED104329142E7
:108DC000F9D1DBF800203AB902220123CBF8006088
:108DD000ABF8042000930BE0142262434B4B0220BB
:108DE000991898544A4A4E60548001340881A4B2BC
:108DF00045F001050AF5805ABAF5405FC5D1B9F1D1
:108E0000010F98BF0025EDB2022D03D0062D44D0EE
:108E1000002D4CD148F20A6783E73C491422624393
:108E2000881809F1FF394660032088541FFA89F930
:108E30000134A4B2DEE735491420604301EB000C95
:108E40000A5400F1100208300A44CCF804600144CE
:108E50003046FFF73FFB45F00205E9E7009B6BB1A9
:108E60002A4B14226243991802209854DBF8002000
:108E70004A60274A088154800134A4B2002225495F
:108E8000CBF800603046FFF725FBBBF80420022A30
:108E90000CBF042208221543ACE7012388F80030F8
:108EA00003A80023C8F80430FFF71CFA39E702A82A
:108EB000FFF7D4FAC8B10123013D03700A2D09D888
:108EC000DFE805F006080608070807080F110F007D
:108ED0000023037102A90B4800F0D3F9FFF76EFEDF
:108EE0001FE70323F5E70223F3E748F2076718E7D4
:108EF00088240020141000106022002074B10300A8
:108F0000D424002060250020DEC0ADDEAC2400208B
:108F100090240020782500207425002073B50D468C
:108F20000446C8B1C1B10DF10601FFF737FBB0B17E
:108F30000C4BBDF806006668142202FB00300121CC
:108F40000C3000F081FA63682E600C336B600123F3
:108F5000A372002002B070BD48F20460FAE748F244
:108F60000960F7E7AC24002013B50446A8B10DF161
:108F70000601FFF713FB98B10C4ABDF80630142127
:108F800001FB0323DA6872B1A27A62B1DA680020C9
:108F9000013ADA60A07202B010BD48F20460FAE74C
:108FA00048F20960F7E748F20560F4E7AC240020D6
:108FB00002230022FFF710BE18B103230022FFF79F
:108FC0000BBE48F204607047114B1B7813B5044682
:108FD000ABB14FF6FF73984214D001A8FFF73EFAE9
:108FE00098B10523037001230371C48001A90948C6
:108FF00000F047F9FFF7E2FD002002B010BD48F293
:109000000160FAE748F20360F7E748F20760F4E727
:1090100088240020602500200F4B1B7807B5A3B1E2
:1090200001A8FFF71BFA98B10623037001A90B48AA
:1090300000F027F90A4B1A780AB101221A73FFF7D8
:10904000BDFD002003B05DF804FB48F20160F9E7C4
:1090500048F20760F6E700BF882400206025002062
:109060009024002007B5ADF80600ADF804100DF10E
:10907000060001A9FFF7E6FA03B05DF804FB07B5A7
:109080001346ADF806000A4600200DF10601FFF771
:10909000D9FA03B05DF804FB07B51346ADF8060036
:1090A0000A460DF106000021FFF7CCFA03B05DF887
:1090B00004FB20B119B103680B600020704748F22F
:1090C000046070472DE9F84F3C4B1B780446002B99
:1090D0006ED000286FD012220021DFF8E4A00BF040
:1090E000DDFA032323804FF0000BD04614274FF006
:1090F0000109DAF80410BAF80A50BAF8086008460C
:10910000FFF7BAF9032808BF2388628804BF03F178
:10911000FF33238007FB0B832E44DB6813446380FB
:1091200023891D4463892581B6B233446381C6F522
:109130008066A389B6B2B34238BFA68101F10805A3
:1091400001F58056AE4217D92B68013314D0314651
:109150002846FFF7A9F9012819D010F0FF0F23D0F6
:109160000228EFD1E38884F81090761BE58901335B
:1091700005EBA605E380E5810AF1140ABBF1000FB7
:1091800002D00020BDE8F88F4FF0010BB1E7E38873
:109190000133E380E3896A8803331344E3816B88F6
:1091A000033305EB8305CDE7A3880133A380F6E7FE
:1091B00048F20160E6E748F20460E3E78824002013
:1091C000AC24002010B561B1B2FBF3F403FB14240E
:1091D000A4B244B9C0E9001484608281C3812046EE
:1091E00010BD0E20FCE70920FAE782B050E8022FFC
:1091F000C188B2EB324F4FF0000317BF92B241EA81
:10920000014142EA014104E04268B2EB324F08BF3B
:10921000012340E80212002AE8D18DF807309DF8BA
:109220000730002B0CBF1120002002B0704737B56B
:1092300050E8013F9DB2C48925448489A54228BFD6
:109240002D1B0489A54202BFBFF32F8F002207E028
:10925000C5EA030540E80154002CE9D14FF00102B2
:109260008DF803200193019B9DF803200B6002F011
:10927000FF0322B10B880068184403B030BD1846C4
:10928000FBE70A884B889A4209D150E8012FC2EACD
:10929000024240E80123002BF7D101207047002053
:1092A000704737B550E8023F1FFAA3F5C488A542BE
:1092B00002BFBFF32F8F00220DE0C48925448489AB
:1092C000A54228BF2D1BC3EA054540E80254002CE7
:1092D000E8D14FF001028DF803200193019B9DF826
:1092E00003200B6002F0FF0322B14B880068184492
:1092F00003B030BD1846FBE70A884B889A4209D173
:1093000050E8022FC2EA224240E80223002BF7D1A4
:10931000012070470020704701F01F024B09012116
:10932000914000EB830000F063B84B0910B501F0E9
:109330001F040121A14000EB830000F04EF8E04043
:1093400000F0010010BD01F01F0301229A404B09FB
:1093500000EB8300D14300F061B84B0901F01F011D
:1093600050F82300C84000F0010070472DE9F04795
:109370004E1E760980460F460136002558F82540D6
:1093800008EB8509E44394FAA4F4B4FA84F44FEAB0
:10939000451A202C06D10135AE42EFD83C46204676
:1093A000BDE8F0875444A742F5D921464046FFF76F
:1093B000BCFF0028F3D0D9F80040E44394FAA4F4A9
:1093C000B4FA84F4E5E750E8002F0B4640E8003C8F
:1093D0009CF0000FF7D11046704750E8002F42EA8A
:1093E000010340E8003C9CF0000FF6D110467047A6
:1093F00050E8003F43EA010240E8002C9CF0000FD7
:10940000F6D11046704750E8002F02EA010340E809
:10941000003C9CF0000FF6D11046704750E8003F2A
:1094200003EA010240E8002C9CF0000FF6D1104640
:10943000704750E8002F02EB010340E8003C9CF02D
:10944000000FF6D11046704750E8003F03EB0102D1
:1094500040E8002C9CF0000FF6D11046704750E811
:10946000003FA3EB010240E8002C9CF0000FF6D176
:10947000104670470121FFF7B0BF0121FFF7B8BFC9
:109480000021FFF7C0BF10B590B1D0E901230168FA
:109490009B1ADBB20A60013BDBB2FF2B026802D1F0
:1094A0000020107110BD11684C1C14600B70F2E7A5
:1094B0000E20F7E737B5054600240DF107008DF8BB
:1094C0000740FEF799FD2A686B68116899420ED92A
:1094D000481E106011F8014CEB68298A01FB043426
:1094E000AB6811791B1ADBB2994238BF13719DF832
:1094F0000700FEF7A5FD204603B030BD37B5054691
:1095000000230DF107000C468DF80730FEF774FDBF
:109510002A681368591C1160E968641A298AB4FB27
:10952000F1F41C709DF80700FEF78AFD03B030BD12
:10953000826810B504462AB14369016800699847FA
:109540000023A36010BD0EB403B5039921B104AB91
:1095500001AA019300F074F802B05DF804EB03B0C7
:1095600070470A2938B504460D4602D10D21FFF790
:10957000F8FFA3682268591CA160D554D4E90132D0
:109580009A4204D32046BDE83840FFF7D1BF38BD2A
:109590002DE9F84F9946DDE90A4317468246884689
:1095A0000A460126BA420FD24E4538BF4E4613F046
:1095B000010B01D164B900240125B9F1010F1AD9B9
:1095C00009F1FF397D43F8E7B2FBF7F20136E9E72D
:1095D0009B070ED5B9F1000F0CBF30252025A64200
:1095E000EAD2013C29465046FFF7BBFF002CF6D1DA
:1095F000E1E72025F3E7B8FBF5F39F42E2D9DFF876
:109600003C90B8FBF5F3504619F8031005FB13889E
:10961000FFF7A7FFB5FBF7F3BD4207D2BBF1000F81
:1096200002D00CB1A64203D3BDE8F88F1D46E8E78F
:1096300020215046013CFFF794FFF2E789AF030079
:109640002DE9F74F054617468846002900F030817E
:1096500018F8011B49B92B7B002B00F02981284603
:1096600003B0BDE8F04FFFF763BF252940F0C0808D
:10967000002698F800302D2B424608F1010823D02F
:10968000302B24D02B2B25D000242A2B02F10101D2
:1096900023D13B681A1D1B683A601C440A461378A4
:1096A0002E2B26D101324FF00009104610F8011B75
:1096B000A1F1300CBCF1090F1DD80A2303FB0913DB
:1096C000A3F130090246F0E746F00106D1E746F083
:1096D0000206CEE746F00406CBE711F8013CA3F101
:1096E00030000928DBD80A2202FB0434303C0A4649
:1096F000CBE74FF0000912F8011B01F0FB006828CE
:109700009046F8D069290ED04AD8582964D006D896
:1097100025296DD098F80030002B99D19BE763295B
:1097200062D06429F6D13A68D2F800A0111D8AEA05
:10973000EA723960A2EBEA724FF0010B092A5BDC96
:10974000CB4538BFCB462CB1BAF1000F01DB720715
:1097500000D5013CB30702D5B9F1000F04D0F007E2
:1097600002D4002C4ED10024BAF1000F52DACAF113
:10977000000A2D212846FFF7F4FE06F00302022A14
:1097800005D1B9F1000F02D1002C47D10024CDE959
:1097900000464B460A2251462846FFF7F9FEB9E734
:1097A00073294CD014D87029B4D13B681A1D3A6083
:1097B000302128461C68FFF7D4FE78212846FFF7A1
:1097C000D0FE00220823CDE9003221461022E3E733
:1097D00075292BD078299DD139680A1D3A60CDE9C9
:1097E00000464B46102228E03B681A1D19783A6063
:1097F0002846FFF7B6FE8DE70A230BF1010BB2FBFB
:10980000F3F29BE7A345AFD220212846013CFFF7A6
:10981000A8FEA6E77107B0D52B21ABE7A345B6D2CA
:1098200030212846013CFFF79CFEADE73968CDE9C1
:1098300000460A1D3A604B460A220968ACE73B68BD
:109840001A1D3A6016F00106D3F800A020D1BAF133
:10985000000F03D050460AF054FF0646B44200D928
:10986000C4B90AF1FF3A1EE028460136FFF779FE37
:109870001AF806100029F7D1A642BFF44BAF002C0E
:109880003FF448AF20212846013CFFF76AFEF3E78A
:109890000026EDE720212846013CFFF762FEDDE7C8
:1098A0002846FFF75EFE1AF8011F0029F8D131E7BC
:1098B00003B0BDE8F08F000007B50B4688B9124B26
:1098C0001248134AC01A0E23C0080093114B00041B
:1098D000114940F0010003F032FA0E2003B05DF8A8
:1098E00004FB4BB9084B09480C4AC01AC0080E23A8
:1098F00000930004074BEBE703601B68114603B0BD
:109900005DF804EB184700BF88AD030010AE0300FC
:1099100046B0030099AF03004BB00300C2B0030090
:109920002DE9F34188B93D4B3D483E4AC01AC00875
:109930000E243D4B009400043C4940F0010003F02C
:10994000FEF9204602B0BDE8F0814AB9334B3448F5
:10995000374AC01AC0080E2400040094324BEBE7CB
:10996000D0F800C0BCF1000F09D12C4B2C48314A73
:10997000C01AC0080824000400942B4BDCE74BB944
:10998000264B27482C4AC01AC0080924000400941A
:10999000254BD1E74768D7F80480B3FBF8F708FBFD
:1099A00017374FB11D4B1E48244AC01AC00809245E
:1099B000000400941C4BBFE78F0709D0174B1848D1
:1099C0001F4AC01AC008102400040094164BB3E7C5
:1099D00012F0030F09D0114B11481A4AC01AC008DF
:1099E000102400040094104BA6E7C768B9420BD3BB
:1099F0004C1E05691C44AC4206D8DCF80C40A44659
:109A000002B0BDE8F0416047044B05480E4AC01A59
:109A1000C008102400040094034B8DE788AD0300B8
:109A200010AE030046B00300ABAF03004BB0030021
:109A3000C8B00300BCB003007BB00300CEB003008D
:109A4000F8B0030010B1030033B10300F7B580B9DB
:109A50002A4B2B482B4AC01AC0080E242A4B0094CC
:109A600000042A4940F0010003F069F9204603B0E0
:109A7000F0BDD0F800C0BCF1000F09D11F4B204849
:109A8000234AC01AC0080824000400941E4BE8E7CB
:109A90004AB91A4B1A481F4AC01AC00809240004C0
:109AA0000094194BDDE74768D7F800E00EF1FF3767
:109AB0000F4209D0114B1248174AC01AC00810248F
:109AC00000040094104BCCE7C768B9420CD34C1E7D
:109AD00005690EFB0244AC4206D8DCF81040A446EF
:109AE00003B0BDE8F0406047044B05480B4AC01A7C
:109AF000C008102400040094034BB2E788AD0300B3
:109B000010AE030046B00300BEAF03004BB003002D
:109B1000BCB003007BB00300D1AF0300F7AF03007C
:109B200029DF704728DF704770B503689D6886B0ED
:109B300004460E466DB11422002168460AF0AEFDBF
:109B4000A3680593237901962BB1012B0DD06846AC
:109B5000A84706B070BD01238DF800302369029339
:109B6000E368039363690493F1E702238DF80030FF
:109B7000E3681B030293F5E708467047002070472F
:109B8000024B187A003018BF0120704728260020A9
:109B9000034B187A0122B0FA80F05A7440097047DA
:109BA0002826002008B510461A460AF04EFD00206F
:109BB00008BD000008B51422002104480AF06EFD1B
:109BC0000348FFF712FB002008BD00BF2826002035
:109BD0001826002010B5094C094B43602046FFF7BA
:109BE00049FC40B90AF0AEFA1C2320748C220549C6
:109BF0000548FFF7E7FA002010BD00BF2826002027
:109C000068B103008C2500201826002070B5244C74
:109C1000244E237A25463BB923492448FFF741FBCC
:109C2000306008B9606070BD346802232B722379FC
:109C300073B1012B24D020460321FFF775FF0023C9
:109C40002B726B6018491948BDE87040FFF754BB90
:109C5000D4E90523D21AB2F5805F28BF4FF48052B1
:109C6000D4E903109208012A38BF0122194418448C
:109C7000FFF756FF50B11128DDD101232B72D2E737
:109C8000D4E903031844FFF74DFFF3E72B7C002BC7
:109C9000C9D10146BDE87040022000F009B800BFFC
:109CA00028260020402600203C26002018260020E0
:109CB00038B5831E012B45D8234C237A002B41D085
:109CC000022B09D1032830D0204B1B680022E26010
:109CD0001A793AB1012A22D0637C7BBBBDE83840B7
:109CE000FFF794BFD3E905128D1AB5F5805F94BFD5
:109CF000521902F580529A619142EDD102284FF03B
:109D0000000308BF19462372104B18BF0D211868B5
:109D1000FFF70AFF0E490F48FFF7EEFADCE71A6972
:109D200001321A615B699A42E7E7E3680133082B65
:109D300001D8E360D0E70023E360DFE7BDE8384007
:109D40000AF0F0B938BD00BF2826002040260020C8
:109D50003C2600201826002000F0FD03012B08D12E
:109D6000044B00225A74421E504250411874FFF7AF
:109D70004DBF70472826002010B5064C201DFFF768
:109D800079FB28B9637C1BB9BDE81040FFF73EBFE3
:109D900010BD00BF282600202DE9F34180460D4666
:109DA0000F4801A916461F46FFF741FA0446A8B11D
:109DB0001C2200210AF072FC2D0B0123237101A942
:109DC000C4F80080A760E56066610548FFF759FAAE
:109DD000FFF7D2FF002002B0BDE8F0810420FAE7CF
:109DE000182600202DE9F74381468846104801A92E
:109DF00017461E46FFF71BFA0446B0B11C2200218D
:109E00000AF04CFC00250A9BA36001A92571C4F847
:109E10000090C4E9037866610548FFF732FAFFF75E
:109E2000ABFF284603B0BDE8F0830420FAE700BF8B
:109E3000182600202DE9F047B0F806904479D2F8B2
:109E400000A09DF8208009FB04F4043C06460AEBC0
:109E50000300A0420F4688BFA4EB030A191DC2F8F5
:109E600000A0B1FBF9F509FB15114DB9A9EB0104EF
:109E7000544528BF5446BAF1000F04D1BDE8F0871D
:109E80003668013DF1E704317B1970182246B8F1BC
:109E9000000F0ED001461846AAEB040A0AF0D5FBC3
:109EA000D145254436684C464FF0000128BF544642
:109EB000E1E71946F0E7FFF7E6BAF8B5467901465B
:109EC000721E0546002393422D6803D30024A64248
:109ED00002D8F8BD0133F6E70F682846FFF70EFBFE
:109EE00001343946F3E72DE9F843068ACD1C0746CD
:109EF000FFF7E0FA043E35440446B5FBF6F5F0B151
:109F00004FF48073EDB28380C680013D07608146C7
:109F10004FF00008A84512D23846FFF7CBFA0646A4
:109F200048B163790133637108F10108C9F8000091
:109F300007608146EEE72046FFF7BFFF3446204624
:109F4000BDE8F88301210430FFF77EBA10B5012186
:109F500004460430FFF783FA10F0FF0F04D12046C7
:109F6000BDE81040FFF7A9BF10BD1FB50392002246
:109F7000009203AAFFF75EFF05B05DF804FB1FB572
:109F800003920122009203AAFFF754FF05B05DF887
:109F900004FB41DF70470000064B10B500241C7025
:109FA000054B1C60BFF35F8F0449054800F00DF9B5
:109FB000204610BD4C2600205026002094B10300FE
:109FC0004426002007B500230DF107008DF8073067
:109FD000FEF712F8F1EE103A23F09F03E1EE103A8B
:109FE000BFF35F8F094B4022C3F884219DF807001F
:109FF000FEF726F80AF0A6F820B1FFF7CAFF03B073
:10A000005DF804FB20BF40BF20BFF8E700E100E09F
:10A01000026813685268934291BFD01A8068013079
:10A02000801888BFC01A704703682DE9F0411F6887
:10A030001D685B689D4284BF83680133164688466D
:10A040005D1BC2684168AE42044607FB02110CD892
:10A05000724340460AF0F9FAA3683E449E4288BF24
:10A06000002623681E60BDE8F08105FB02F73A4632
:10A0700040460AF0EAFAE2686168751B6A4308EB39
:10A0800007000AF0E2FA23681D60ECE703688168C4
:10A090001A685B688B4234BF01330023D31A5842DD
:10A0A00058417047F7B5002304460DF107000D46EF
:10A0B0008DF80730FDF7A0FF2046FFF7E7FF10B14E
:10A0C000237C002B3CD12268A66853685168B142BA
:10A0D00034BF01310021516030B11168A068814264
:10A0E00034BF013100211160E2686068511E072908
:10A0F00020D8DFE801F004101F141F1F1F182A7852
:10A10000C2542046FFF784FF23689A68824200D237
:10A110009860002415E02A8820F81320F1E72A68C7
:10A1200040F82320EDE7D5E9006700EBC300C0E964
:10A130000067E6E7294602FB03000AF086FAE0E73B
:10A1400004249DF80700FDF77BFF204603B0F0BD17
:10A15000F7B506460F461446AAB10DF107000025D3
:10A160008DF80750FDF748FF3046FFF751FFA0423A
:10A170000CD3224639463046FFF756FF2C469DF851
:10A180000700FDF75DFF204603B0F0BD0524F6E7AC
:10A1900013B5002304460DF107008DF80730FDF7D5
:10A1A0002BFF2046FFF734FF04469DF80700FDF71C
:10A1B00047FF204602B010BD836800225A609A60B3
:10A1C000C3E90422DA601A6070470B684A6843608A
:10A1D000934208BF0023016008BF43607047436893
:10A1E00043B10268916852680B449342436004BFD4
:10A1F00000234360704770B5446806460D462068EA
:10A2000018B1B3682946984718B923682B602560B0
:10A2100070BD2468F3E74368186808B102681A60E3
:10A2200070474368186870474368186800B97047FA
:10A23000884203D102681A60012070470346006813
:10A24000F4E7000010B50D49A1F59472914201D8D0
:10A2500000200FE08B1ADB1003EBD3735B1002EBD3
:10A26000C30452F83330834205D802D204F1080205
:10A27000ECE7606810BD2146E8E700BFF0B20300DC
:10A2800008B5FFF7DFFF024B002808BF184608BDDE
:10A29000B2B103000B7B23B14B6803600023037151
:10A2A00070470B6803600123F9E703684A6889680F
:10A2B00010B5D41A8C428BBF5B1800230360026078
:10A2C00098BF037110BD03680A68896810B59C1AAD
:10A2D0008C428BBF5B1A01230360026098BF03713D
:10A2E00010BD037910B504461BB1FFF7DEFF2068EF
:10A2F00010BDFFF7E8FFFAE742DF704743DF704722
:10A3000038B5074C051E04F1080318BF1C46236826
:10A310002BB11A6822605B6828469847F7E738BD7A
:10A320005C26002020B9054B01225A70FFF7E8BFD8
:10A33000012802D1014A9070F8E7704754260020A6
:10A3400020B9034B01225A70FFF7DABF704700BFF4
:10A350005426002038B50B4C237883B90A48636033
:10A36000A3602361E36000F0E3F9054609F0EAFE2B
:10A3700008B900F0E9F901232370284638BD852586
:10A38000FBE700BF5426002025A3020037B50B4C85
:10A3900000230DF107008DF80730FDF72DFEE3686F
:10A3A000013BE360E56815B900F0E0F9A5709DF8A0
:10A3B0000700FDF745FE03B030BD00BF5426002066
:10A3C000012813B509D018B103281CD002B010BD64
:10A3D0000F4B0122C3F88020F8E70E4C00230DF14B
:10A3E00007008DF80730FDF707FE23780BB9FFF75C
:10A3F000B1FFE3689DF807000133E3600123A37018
:10A40000FDF71EFEE2E700F09FF9FFF7BFFFDDE773
:10A4100000E100E05426002037B51B4C6378054668
:10A4200003F0FF029BB110B143680020984700235E
:10A430000DF107008DF80730FDF7DEFD63689DF82C
:10A44000070001336360FDF7FBFD03B030BD0DF184
:10A4500007008DF80720FDF7CFFD25B1A268134650
:10A4600053B92A60A5606368002BE7D109F06AFE42
:10A4700030B1FFF741FFE1E79D42F4D01B68EFE701
:10A4800000F080F9DAE700BF5426002073B50F4CC6
:10A4900000230DF107008DF80730FDF7ADFD63686F
:10A4A000013B6360666836B909F04CFE054640B171
:10A4B000FFF724FF66709DF80700FDF7C1FD02B0AD
:10A4C00070BD00F071F96570F5E700BF54260020FB
:10A4D00030DF704731DF70471FB500238DF807006C
:10A4E0000DF10F008DF80F30FDF786FD09F02AFE03
:10A4F00050B90DF107010848FFF7D4FD0648FFF7F2
:10A50000C5FD08B100F0F8FE9DF80F00FDF798FDBD
:10A5100005B05DF804FB00BF28AD030007B520B10E
:10A5200003280BD003B05DF804FB0F4B1B78012B05
:10A53000F8D100F0E1FE00F0E7FEF3E700230DF1B3
:10A5400007008DF80730FDF757FD07480378012B0A
:10A5500005D10649013000F08FFE00F0BBFE9DF8EA
:10A560000700FDF76DFDDDE7B8260020D9A4020045
:10A5700013B5124C2378FBB9114A8DF80730002827
:10A5800008BF10460288A4F801200DF10700FDF76E
:10A5900033FD09F0D7FD30B90A49601C00F06CFEAC
:10A5A00040B900F097FE01239DF807002370FDF7E6
:10A5B00047FD002002B010BD8520FBE7B826002033
:10A5C000B0B60300D9A4020010B5044609F0BAFDE4
:10A5D00020B90548FFF7DCFD207010BD2046FFF7CD
:10A5E00077FF0028F5D1F8E728AD03002DE9F74300
:10A5F0000024DFF8589005460E46A0460DF10700EE
:10A600008DF80780FDF7F8FC09F09CFD074638B986
:10A61000324629464846FFF79BFD044600F05AFEA5
:10A620009DF80700FDF70CFD47B131462846FFF7BE
:10A6300051FF42F207039842044605D0022CDDD0B8
:10A64000204603B0BDE8F0830524F9E728AD0300F8
:10A650001FB503788DF800304368019383688DF847
:10A660000830C3680393054A054B684653F8213008
:10A6700052F82110984705B05DF804FBBC26002075
:10A68000C42600201FB503788DF80030436801937D
:10A6900083688DF80830C3680393054A054B684604
:10A6A00053F8213052F82110984705B05DF804FBAB
:10A6B000BC260020C4260020F0B5184B0778DFF830
:10A6C0006CE043F82720164B16460A6943F827200A
:10A6D0004B7F0EF807300C4684460FCC89B06D4690
:10A6E0000FC594E80F0085E80F001EF807300497A7
:10A6F00053B1002E0B4A694608BF32460CF10400E4
:10A7000001F024FA09B0F0BD002E074A694608BFDF
:10A7100032460CF10C0000F0EDFFF3E7C4260020F8
:10A72000BC26002051A6020085A60200CC260020EF
:10A73000044A137923B901211060918018467047AB
:10A7400085207047D0260020074B1A68D2075FBFCC
:10A75000C02283F8002301221A604FF080430122B7
:10A76000C3F81825704700BF00E100E0044B012248
:10A770001A604FF08042D2F81834DB03FBD47047E4
:10A780000C000040074B00221A6082B01B68019346
:10A79000019B4FF080430122C3F804231A6002B0EA
:10A7A000704700BF00010040074B01221A604FF0C4
:10A7B0008042D2F80C3403F00113B3F1011FF8D03A
:10A7C000024B00225A71704704000040D02600203E
:10A7D000154B07B51A687AB100221A601B680093FE
:10A7E000009B4FF080430122C3F808230F4B587998
:10A7F00010B95A711B6898470D4B1A6882B1002234
:10A800001A601B680193019B4FF080430222C3F83A
:10A810000823064B1B68012003B05DF804EB1847C2
:10A8200003B05DF804FB00BF00010040D02600200B
:10A830000401004000F1804000F5C040002382B0D8
:10A84000036003680193019B02B0704703681F2BEC
:10A8500083BF03F01F03036001484FF0A04070471F
:10A860000003005007B5019001A8FFF7EFFF019B1F
:10A8700000EB8300D0F8002722F44032C0F8002714
:10A88000D0F8003743EA0143C0F8003703B05DF861
:10A8900004FB0000054B4FF0FF32072843F820204F
:10A8A00084BF1B1883F85820704700BFD8260020AB
:10A8B00010B5174C94F86A3043BB04F130033021D3
:10A8C000FF22013911F0FF0103F8012BF9D1C8B2C1
:10A8D000FFF7E0FF01310C29F9D1062200210D48D4
:10A8E00009F0DCFE0C4BC02283F8062340221A60DC
:10A8F0004FF4BE70FFF79EFF084B4FF00042C3F8C5
:10A900000423012384F86A30002010BD0820FCE7EE
:10A91000D82600203C27002000E100E00060004035
:10A92000034B93F86A00003018BF0120704700BF46
:10A93000D8260020F7B53B4E3318054693F9303042
:10A94000002B6CDA8B78C3F34003002B0BBF082479
:10A9500000240C200820844202D1042003B0F0BD62
:10A9600056F82470013743D1701946F8242080F836
:10A97000304013B9331983F858508B785A0717D4DD
:10A98000D80737D501A80195FFF760FF019B00EBC1
:10A990008300D0F8003723F00203C0F800372248C4
:10A9A000EA0805F007070123BB40875C3B4383545B
:10A9B00088780A7810F0020028D0A40004F18044BE
:10A9C00004F5C0442D02D4F8103523F44F3323F49A
:10A9D0004073C4F810351204D4F8103505F47C55D2
:10A9E00002F4403215431D43C4F810550020B5E76A
:10A9F0000134B0E701A84A780195FFF727FF019BD2
:10AA000003F5E073920040F82320C8E7083C344483
:10AA100094F8605045EA821284F860209EE708208E
:10AA20009CE700BFD82600203C27002073B5224CAD
:10AA30002518064695F93020072A19DD224492F898
:10AA400058309B09032B0FD1019001A8FFF7FEFEA0
:10AA5000019AD0F81035D340DB0707D402213046E5
:10AA6000FFF700FF02B070BD012BF7D00321F6E71E
:10AA7000D3B2072BF6D8930003F1804303F5C0430C
:10AA8000D3F8100540F00100C3F8100502F14000B2
:10AA9000800080B2FFF7CEFE0029E3D095F9303078
:10AAA00054F82330002BDDD0012303FA02F2034BCC
:10AAB000C3F80423D6E700BFD8260020006000407A
:10AAC00007B5019001A8FFF7C1FE019BD0F8100562
:10AAD000D84000F0010003B05DF804FB2DE9F04F11
:10AAE000002489B0CDE90244624D4FF48072012107
:10AAF00002F1804303F5C04390B21B68012B06D1DD
:10AB0000D5F804330B4202D0FFF794FE0C43043215
:10AB1000B2F5907F4FEA4101EAD1574B1B68012BF8
:10AB20000ED14FF4BE70FFF785FE4FF0A04344F006
:10AB30000044D3F810350293504BD3F810350393EB
:10AB400014F0FF0F1AD04E4F00250126344210D0CA
:10AB5000AB0003F1804303F5C043D3F81005D3F8ED
:10AB6000101557F8253023B1C1F30141C0F305207A
:10AB700098470135082D4FEA4606E7D1002C75DAD3
:10AB80000DF1100800230493C8F804304FF0FF3390
:10AB9000CDE90633DFF8E8A0DFF8E89000273D466E
:10ABA00019F9014B631C48D0E4B2012324F0C0061C
:10ABB00004F0070203FA02F2F00808AB191811F8C2
:10ABC000083C134239D00AEB0603A40993F930304C
:10ABD0005AF823B0BBF1000F08D1032C2DD118F87F
:10ABE00000C04CEA020C08F800C001E0032CF6D0CB
:10ABF00001A80196FFF72AFE019B11F8181C03F526
:10AC0000E07C114250F82C00C0F3014005D002282E
:10AC100013D1032C0BD1214604E003280DD1032CC2
:10AC200005D102213046FFF71DFE0135EDB2BBF123
:10AC3000000F02D021463046D8470137042FAFD14C
:10AC4000A5B14FF0A0430299D3F8102503F5407346
:10AC50009142D3F8103502D10399994206D002925D
:10AC60000393049A059B0692079395E709B0BDE804
:10AC7000F08F00BF006000407C6100400003005086
:10AC8000D826002038270020C02910B525D0B9B11A
:10AC900080290AD14378047882781B0243EA04436E
:10ACA00013430F4A0330C2F89835437802781B02E9
:10ACB00043EA024382781343094A0330C2F89435C9
:10ACC0000368074A1BBAC2F89035D2F8A03523F0C2
:10ACD000C0030B43C2F8A03510BD4021E5E700BF1B
:10ACE00000500040064B07490122C3F804240A60C3
:10ACF000054AC3F804230422C3F80423704700BFA5
:10AD0000005000400850004082000800034BD3F878
:10AD10003C0410F0030018BF0120704700500040B1
:10AD200070B5204A86B0137A8DF8070033BB9DF8C2
:10AD30000730032B07D1FFF7E9FF002814BF0223D8
:10AD400001238DF807309DF80740E4B2012C17D09D
:10AD5000022C13D1144D6B7A03F0FF0173B9012655
:10AD600016811048917200F07BFB0E4800F05EFBEC
:10AD70006B686E7202940BB102A8984706B070BD62
:10AD80000A4B0B4A1C604FF48F63C2F80833064B22
:10AD900000215972042102914FF48051C2F8081524
:10ADA0005B68E8E77C22002048270020085000402C
:10ADB000005000400E4B1A7810B50E4C3AB10022EC
:10ADC00022720320BDE810401A70FFF7A9BF627A13
:10ADD0006AB1A27A5AB10849012220460A601A7063
:10ADE00000F03EFB2046BDE8104000F01FBB10BD48
:10ADF000442700207C22002000500040B0F5A07FB6
:10AE000008B508D104480123837200F01DFBBDE89A
:10AE10000840FFF7CFBF08BD7C2200200288084B06
:10AE20004168C3F81015C2F30802C3F81425054A97
:10AE3000126802F48C62C3F804230122DA617047BD
:10AE400000500040482700200368DBB10E4A4068EC
:10AE5000C2F810059BB2C3F30800DB00C3F30B0379
:10AE60009BB2C2F81405C2F81C35084BC2F80C1589
:10AE70001B6803F01803C2F80433054B01221A6063
:10AE800000207047092070470050004048270020EC
:10AE90000C50004010B5044620B9064B01225A72EE
:10AEA000FFF788FF04F1804000F5A0400123036014
:10AEB00010BD00BF7C220020292813D10D4BD3F8F0
:10AEC000203413F0010F14BF0B4A0C4A0123136006
:10AED000084B4FF48052C3F808254FF48F62C3F833
:10AEE0000823704700F1804000F5A0400123036073
:10AEF000EEE700BF005000402850004024500040C2
:10AF00000A2970B5024630D84FF49263CB40DB4338
:10AF100013F0010029D14FF080540429D4F8505483
:10AF2000D4F85434D4F8584415704FEA15264FEA33
:10AF300015459570DDB25670D57001D1002070BDF9
:10AF40001E0A16710A294FEA13464FEA1363567117
:10AF5000937105D1230AD471240C13725472EEE755
:10AF6000882DEBD19923D370E9E70920E7E70000AA
:10AF70002DE9FF41264D2A7A002A47D103C885E8EA
:10AF800003002449244F0323C1F80C35D1F8A03520
:10AF900023F01F0343F00403C1F8A0351F4B202109
:10AFA0004FF0C008C3F8801183F8058319600423AB
:10AFB000CDE9022202A98DF80830194A0623384645
:10AFC0008DF80B3000F0CAF90446D8B93B68D3F8C5
:10AFD000102501264FF47A51D2B2334621FA02F2FB
:10AFE00000960146384600F058FA072102A8FFF7FC
:10AFF00087FF4146044602A8FFF746FE4FF4805300
:10B000002E72EB60204604B0BDE8F0810824F9E719
:10B0100048270020005000407C22002000E100E092
:10B02000FDAD02007FB5704B186850B16F4AD2F881
:10B03000040310F0020004D000221A60BFF34F8F07
:10B0400002206B4B1A687AB1684AD2F8042352077F
:10B050000AD500221A60BFF34F8F90420CBF012027
:10B060000320FFF75DFE01E00028FAD1614C624D3C
:10B070002368002B31D05D4AD2F804335B062CD50F
:10B0800000212160BFF34F8F402301910093D2F83C
:10B0900010350393D2F824355848C3F30B03103B03
:10B0A000C3F3CC030293036873B1D2F804335E0593
:10B0B0000AD5D2F80C3403F00D0301930160BFF3FD
:10B0C0004F8F0D23C2F80C344D4B5B680BB16846B3
:10B0D000984700232B60BFF34F8F4A4E3368ABB1C4
:10B0E000424AD2F80433D90610D500233360BFF3A7
:10B0F0004F8FCDE901330393102300931823C2F837
:10B1000008333F4B5B680BB1684698473E490B6874
:10B110005BB3364AD2F804331B0326D500230B60F9
:10B12000BFF34F8F2360BFF34F8F41F8243CBFF331
:10B130004F8F2B60BFF34F8F3360BFF34F8F30487B
:10B14000C168C1F31301C2F808150D21C2F80C142F
:10B150000121C2F80414CDE9013303934FF4002315
:10B16000009343680BB16846984728490B68F3B1D0
:10B170001E4AD2F80433180619D50023D2F8040465
:10B180000B60BFF34F8FCDE901330393C1074FF03D
:10B190008003009307D50123C2F80434184B5B6881
:10B1A0000BB168469847114B0122C3F804242B6861
:10B1B000BBB10E4BD3F80423120712D500222A602C
:10B1C000BFF34F8F0E4A52685AB108210091D3F84D
:10B1D00010150291D3F81C35C3F3C80301936846D8
:10B1E000904704B070BD00BF0451004000500040C3
:10B1F00008510040185100400C51004028510040B7
:10B2000048270020105100404C5100401C51004084
:10B21000014B1B68184700BF582700200E4B98426F
:10B2200037B50D4602D0002003B030BD00230DF12C
:10B2300007008DF80730FCF7DFFE084B1C7914B9C6
:10B2400001221D601A719DF80700FCF7F9FE002C21
:10B25000E9D01120E8E700BF002000405827002077
:10B26000034B984201BF034B00221A601A717047CA
:10B27000002000405827002010B5124C2278FAB95F
:10B28000114B1960037813F0010F104B1EBFD3F858
:10B29000042542F00102C3F80425D3F8002222F06D
:10B2A0000102C3F800224378094A5B01DBB282F84D
:10B2B0000D334FF40053136001232370002010BDA1
:10B2C0008520FCE7642700206027002000D0004094
:10B2D00000E100E0064B00221A6082B01B68019377
:10B2E000019B044B0122C3F804231A6002B070478B
:10B2F00000D1004000D00040024A0123C2F80833C8
:10B300005360704700D00040064A0123C2F808335A
:10B310005360054B4FF40052C3F88020034B0022CA
:10B320001A70704700D0004000E100E06427002060
:10B33000074B00221A6082B01B680193019B054BEA
:10B34000D3F80805044B1B68C0B202B0184700BF11
:10B3500000D1004000D0004060270020F7B50679FA
:10B360002F4D0C237343EF183C7A002C55D1EA5033
:10B370004B687B60477903682246D0B2874243D846
:10B380001A0B54B2C878002CA8BF04F16047D2B29F
:10B39000BABF02F00F0C234F07F561474FEA401088
:10B3A000C0B2B4BF07F80C0087F80003640901209D
:10B3B00002F01F021C4F00FA02F247F824204A78DC
:10B3C000D3F8044502F0030224F003042243C3F837
:10B3D0000425D3F808458A7824F0030402F0030218
:10B3E0002243C3F80825D3F810450A7824F00F0447
:10B3F00002F00F022243C3F810250C2303FB06556D
:10B400002872002003B0F0BD900000F5A07001325A
:10B410001C50185801900198AFE70820F2E700BFD0
:10B420006827002014ED00E000E100E0036801223D
:10B430001A600379034A0C2101FB032302221A72CA
:10B44000704700BF682700200368044901221A6181
:10B4500003790C2000FB03131A7270476827002041
:10B4600003680122DA60704737B54FF480348C40AE
:10B4700000687BB18B0003F5A0730025C550C3584D
:10B480000193019BC0F8044301F5A87140F8212005
:10B4900003B030BDC0F80843F6E770B4046840F26A
:10B4A0000116D4F800528E4025EA0605C4F8005271
:10B4B000D4F800522B43C4F800329DF80C3070BC15
:10B4C000FFF7D2BF2DE9F341104C114F114E00256B
:10B4D0004FF48038236883B1D7F8043308FA05F2B3
:10B4E0001A420AD0002323602368019304F5A04088
:10B4F000019B80B2D6E9003198470135062D04F151
:10B500000404E7D102B0BDE8F08100BF40B10140C2
:10B5100000B00140682700200023435082B0435808
:10B520000193019B02B070470A4610B54FF48E712B
:10B53000FFF7F2FF136A9168C95C136A0133136263
:10B54000C0F81C1510BD8B690A4610B54FF4847104
:10B5500023B9FFF7E1FFD0F8183510BDFFF7DCFF86
:10B56000536AD168D0F81805C854536A013353623E
:10B57000F3E700001FB501238DF80030044BCDE93F
:10B580000110D3E900126846904705B05DF804FB4E
:10B590007427002030B54D4AD2F8043313F4007FED
:10B5A00085B015464FD0D2F82431002B4BD04FF444
:10B5B00092711046FFF7B0FF4FF40173C2F80833E1
:10B5C000434B93F8291009B9012151603F490222E8
:10B5D0008DF80020D1F88024C1F8802403929A6964
:10B5E0000292DA6801920022C3E906226846D3E992
:10B5F000001290473548D0F81C315BB134494A6994
:10B600000B6A9A420A464BD991F82830002B47D151
:10B61000FFF78AFF2D4AD2F8443193B14FF4A2715B
:10B620001046FFF779FF2A4B93F8291009B1012141
:10B6300011609A692AB100229A61586AD968FFF7A5
:10B6400099FF05B030BDD5F804335B07D2D5D5F8E6
:10B650000831002BCED01E4C1C482146FFF773FF4B
:10B66000636AA2699A422346C4D1E269E1684AB199
:10B670002369E3600023606AA261E3616362FFF70C
:10B6800079FFB7E794F829200AB901226A600F4AC6
:10B690004FF40170C2F8080300229A61586AEEE77D
:10B6A0004FF48E710948FFF737FF5369002BB1D073
:10B6B00051690291002391688DF800300191536126
:10B6C0006846D2E900139847A4E700BF0020004075
:10B6D000742700201F2886BF00F01F00044B4FF086
:10B6E000A04300F5E070022243F82020704700BF1D
:10B6F000000300502DE9F843624F047991462C2253
:10B7000002FB0472064692F82A200D46002A40F0F9
:10B71000B3805D490068FFF781FD8046002840F056
:10B72000AE8029684A1C10D01F2987BF01F01F0373
:10B73000564A0B464FF0A0420120984003F5E073B3
:10B74000C2F80805032042F823006868431C0DD0A6
:10B750001F288BBF00F01F0303464C4A4FF0A04246
:10B7600003F5E0734FF0000C42F823C03368AA6978
:10B7700095F814C0C3F824256A7DBCF1010F4CEA8A
:10B780000202C3F86C25C3F81405C3F80C152BD1BD
:10B79000A968481C0DD01F298BBF01F01F020A4663
:10B7A0003A484FF0A04002F5E0724FF0000C40F82C
:10B7B00022C0E868421C13D01F2887BF00F01F0C6E
:10B7C000324A84464FF0A0424FF0010E0EFA0CFEB2
:10B7D0000CF5E07CC2F808E54FF0030E42F82CE0CF
:10B7E000C3F80805C3F810152C236343FA18C2F8F0
:10B7F00004902A69FA50B9F1000F2AD04FF48E71E3
:10B8000030682D7FFFF788FE30684FF4A271FFF794
:10B8100083FE32681E4BC2F80433120B51B200296A
:10B82000A8BF01F160404FEA4513BABF194802F0C2
:10B830000F0500F56140DBB2B4BF435580F800331B
:10B8400002F01F02012303FA02F24909124B43F8E6
:10B85000212033680422C3F800252C2303FB047342
:10B860000022C3E9062283F829205A61012283F8C5
:10B870002A204046BDE8F8834FF00808F9E74FF06A
:10B880001108F6E77427002095B502000003005068
:10B890008000020014ED00E000E100E02DE9F0413D
:10B8A00003680479254D0022C3F800252C2202FBF1
:10B8B00004520646526872B1214AC3F80823190B94
:10B8C0004AB20120520901F01F0100FA01F12032B1
:10B8D0001C4840F82210D3F80C05D3F81485D3F88F
:10B8E0000815D3F810754FF0FF329042C3F81425B5
:10B8F000C3F80C25C3F80825C3F8102501D0FFF7BD
:10B90000E9FEB8F1FF3F02D04046FFF7E3FE7A1CA4
:10B9100002D03846FFF7DEFE4B1C02D00846FFF788
:10B92000D9FE3068FFF79CFC2C2303FB0454002352
:10B9300084F82A306360BDE8F08100BF74270020DE
:10B940008402020000E100E02DE9F84F224F067961
:10B950004FF02C0909FB067480466569002D38D12B
:10B960006261A16025624FF48E71006884F82850EE
:10B97000FFF7D2FDD8F80000012383602146FFF7CE
:10B98000D3FD6368A1469BB9D8F800A0D4F814B0E1
:10B99000236A9B4512D8D8F80020D2F81C31002B1E
:10B9A000FBD00123D3602C2303FB067300225A61D2
:10B9B0002846BDE8F88F94F8283043B9DAF81C31EE
:10B9C000002BF8D049465046FFF7AEFDE0E70F25C3
:10B9D000E9E71125ECE700BF74270020002343505E
:10B9E00082B043580193019B02B070471FB50123F9
:10B9F0008DF80030044BCDE90110D3E90012684600
:10BA0000904705B05DF804FBA02700201F2886BFE3
:10BA100000F01F00044B4FF0A04300F5E07002223D
:10BA200043F82020704700BF000300507FB5454A0F
:10BA3000D2F82461002E63D010464FF49271FFF7C4
:10BA4000CDFF02238DF80030D2F88034C2F8803464
:10BA50000393D2F83C3502933B4BDA680192002203
:10BA6000C3E906226846D3E900129047354AD2F866
:10BA700044317BB14FF4A2711046FFF7AFFF324B58
:10BA8000996939B10021C3E90611D968D2F83C059A
:10BA9000FFF7ACFF2B4AD2F82031B3B14FF49071CD
:10BAA0001046FFF79BFF0123D360274B596961B113
:10BAB000D2F84C150291002299688DF8002001916E
:10BAC0005A616846D3E9001290471E4AD2F85831AD
:10BAD000A3B14FF4AC711046FFF780FF1A4B5969C0
:10BAE00061B1D2F84C150291002299688DF80020BE
:10BAF00001915A616846D3E90012904704B070BDC5
:10BB0000D2F81031002BB1D04FF488711046FFF7F6
:10BB100065FF0D4BD2F83C0599698842A6D1DC69D6
:10BB2000D96864B1D2F8005225F02005C2F800525D
:10BB30001A699C61DA60DE61FFF758FF96E79C6145
:10BB4000FAE700BF00200040A02700202DE9F843BD
:10BB5000694F06799146242202FB0672044692F848
:10BB600020200D46002A40F0C08064490068FFF79D
:10BB700055FB8046002840F0BB802868421C10D04E
:10BB80001F2887BF00F01F035D4A03464FF0A04205
:10BB90000121994003F5E073C2F80815032142F82A
:10BBA000231069684B1C0DD01F298BBF01F01F03A8
:10BBB0000B46534A4FF0A04203F5E0734FF0000CE0
:10BBC00042F823C02368AA6995F814C0C3F8242555
:10BBD0006A7DBCF1010F4CEA0202C3F86C25C3F880
:10BBE0000C05C3F814152BD1A968481C0DD01F29CA
:10BBF0008BBF01F01F020A4641484FF0A04002F5FA
:10BC0000E0724FF0000C40F822C0E868421C13D0EC
:10BC10001F2887BF00F01F0C394A84464FF0A0420E
:10BC20004FF0010E0EFA0CFE0CF5E07CC2F808E5B0
:10BC30004FF0030E42F82CE0C3F80805C3F81015C6
:10BC400024237343FA18C2F804902A69FA50B9F110
:10BC5000000F39D04FF4887120682D7FFFF7BEFEAA
:10BC60004FF490712068FFF7B9FE4FF4927120688D
:10BC7000FFF7B4FE4FF4A2712068FFF7AFFE206813
:10BC80004FF4AC71FFF7AAFE22681E4BC2F80433D2
:10BC9000120B51B20029A8BF01F160404FEA4513D1
:10BCA000BABF194802F00F0500F56140DBB2B4BF1E
:10BCB000435580F8003302F01F02012303FA02F219
:10BCC0004909124B43F8212023680822C3F80025B4
:10BCD000242303FB06730022C3E906225A610122D2
:10BCE00083F820204046BDE8F8834FF00808F9E7C4
:10BCF0004FF01108F6E700BFA02700202DBA020080
:10BD0000000300501003420014ED00E000E100E0E9
:10BD10002DE9F0412F4D0479242303FB04530646FB
:10BD20005B68006873B12C4BC0F80833020B53B248
:10BD300001215B0902F01F0201FA02F220332749B8
:10BD400041F82320D0F80032012223F02003C0F86C
:10BD500000324FF4AC714260FFF740FE3368DA60A6
:10BD6000D3F85821002AFBD00022C3F80025D3F8CD
:10BD70000C05D3F81485D3F80815D3F810754FF0D7
:10BD8000FF329042C3F80C25C3F81425C3F80825E8
:10BD9000C3F8102501D0FFF739FEB8F1FF3F02D0FC
:10BDA0004046FFF733FE7A1C02D03846FFF72EFEDE
:10BDB0004B1C02D00846FFF729FE3068FFF750FA07
:10BDC000242303FB0454002384F820306360BDE87F
:10BDD000F08100BFA02700201003420000E100E036
:10BDE00001F06043B3F1005F2DE9F041074638D11F
:10BDF0001E4B0679242505FB063598466C69002CF8
:10BE000031D16A61A96000684FF49071FFF7E6FDD7
:10BE10004FF4AC713868FFF7E1FD3B686A69A968C7
:10BE2000C3F84415C3F8482501229A606A68AAB984
:10BE3000D3F82021D3F858411AB9002CF8D00F2498
:10BE400007E0002CFBD10122DA60D3F85821002A48
:10BE5000FBD0242303FB0686002373612046BDE844
:10BE6000F0811024FAE71124F8E700BFA027002092
:10BE7000A8DF7047ACDF7047AEDF704737B50546C7
:10BE80000C46E1B1D8B10388502B18D14B7CB3B12B
:10BE9000C2884B899A4212D1038A022B0FD10B68B8
:10BEA0006BB1123003F0CDF9AB88ADF8063080F0FD
:10BEB00001008DF80400236801A92046984703B0CB
:10BEC00030BD2DE9F0410E4690B00446002866D002
:10BED000002964D00B6803600B794374FF2303745B
:10BEE000221D012041F60F0302A98DF80A00ADF8CA
:10BEF0000830FFF7BDFF054600284AD12022337BDA
:10BF00008DF8033001460DEB020008F0C7FB42F646
:10BF10001923ADF820304FF0011309930DF10303FD
:10BF2000627C0A939DF82D30A08862F3041343F0DD
:10BF300002038DF82D30B37B8DF83330A21D737B57
:10BF40008DF8313008A903F08FF9054608BBB168B8
:10BF500019B30DF10408404603F077F92946074666
:10BF6000142203A808F09AFBB8B242F60813ADF801
:10BF70000C30ADF81600F37BADF81A0004F10E0298
:10BF800003A9E0888DF81230CDF81C8003F010FA78
:10BF90000546284610B0BDE8F081E081F9E70E259E
:10BFA000F7E72DE9F04194B017468DF807100546E4
:10BFB000002857D0027CCBB29A4255D003AE08225B
:10BFC0000021304608F06AFB4FF001080DF107032D
:10BFD0003246E988CDF80C804FF6FF700493FFF7E6
:10BFE00049FF044610BB9DF807302B746B7C002B77
:10BFF0003CD00146102205A808F050FBEB88ADF8B4
:10C000001430BDF80E30ADF81830049B08934FF68D
:10C01000FE739F428DF8168007961DD109A803F084
:10C0200099F80AAF2546099B9D4203D3204614B0D8
:10C03000BDE8F08137F8026B304603F051F8022872
:10C0400005D105A9304624B9FFF716FF044601358E
:10C05000E9E7FFF711FFFAE705A93846FFF70CFFFC
:10C060000446E3E70E24E1E70024DFE70824DDE7E8
:10C07000A8DF7047F0B5074689B014461E460D4646
:10C0800011B90846FBF7C4FD14B92046FBF7C0FD03
:10C0900020220021684608F001FB9DF80D300E9A21
:10C0A000ADF8007043F002038DF80D30064BADF88B
:10C0B000044069461888ADF8064002958DF8116075
:10C0C00003F0D2F809B0F0BDFC27002030B587B0EE
:10C0D00041F60A030446564AADF80C30012003A984
:10C0E0008DF80E00FFF7C4FF0546002847D12288CF
:10C0F000002A47D1228952B14E4B0093E16894F84F
:10C100003C3042F62420FFF7B5FF002845D1228AB3
:10C1100052B1494B0093616994F83C3042F62520B6
:10C12000FFF7A8FF002838D1228B4AB1434B009378
:10C13000E16994F83C3042F62720FFF79BFF60BB93
:10C14000228C4AB13E4B0093616A94F83C3042F62F
:10C150002620FFF78FFF00BB228D4AB1394B009399
:10C16000E16A94F83C3042F62820FFF783FFA0B93B
:10C17000236BA3B9616B69BBA36B002B37D1284636
:10C1800007B030BD304B0093616894F83C3042F604
:10C190002920FFF76FFF0028ACD00546EFE7D3E971
:10C1A000001204918DF814209B688DF815301A0A3E
:10C1B0001B0C8DF81730254B8DF8162000930822A4
:10C1C00094F83C3004A942F62320FFF753FF0028DF
:10C1D000D0D0E2E71E4B0A790093096894F83C300E
:10C1E00042F62A20FFF746FF0028C5D0D5E71A7887
:10C1F0008DF810205A888DF81120120A8DF812201F
:10C200009A888DF81320120A8DF81420DB888DF897
:10C2100015301B0A8DF816300E4B0093072294F848
:10C220003C3004A942F65020FFF724FFB5E700BFD9
:10C23000FC270020DC270020F4270020CC2700204A
:10C24000C4270020FE270020D42700200628002035
:10C25000EC270020E4270020A8DF7047AEDF7047FE
:10C260004379002B90F822302DE9F04104469046A6
:10C270000CBF002504250BB145F00205FF29CBB208
:10C2800083BF090A88F8013088F8021088F8013065
:10C29000B4F84C3086BF45F001054FF0030C4FF069
:10C2A000020C0BB145F0100504F1240100260846EC
:10C2B000B4F84C200CEB4607B242FFB20CDD94F808
:10C2C0004EE0BB1C734511D9921B06F112015200BE
:10C2D00004EB410108F09CF9B4F84C309E1BA4F823
:10C2E0004C60384688F80050BDE8F08131F8023BD8
:10C2F00008F8073008EB07021B0A53700136D7E72E
:10C300000388112B13B50C4607D0502B08D0102BE7
:10C3100001D18388238402B010BD4FF6FF73F9E783
:10C32000C2888B899A42F6D1038A022BF3D10B681B
:10C33000002BF0D0123002F084FF80F001008DF865
:10C340000400236801A920469847E4E7F0B50B688C
:10C3500003600B7943714FF6FF738FB0038404467B
:10C360000023142780F82230A0F84C3080F84E705B
:10C3700041F60D0301200E46A21D69468DF802000C
:10C38000ADF80030FFF768FF0546002848D10146A8
:10C39000202206A808F082F9ADF81C7001AF42F621
:10C3A000372329463A462046ADF81830FFF758FFA4
:10C3B000BDF82430ADF81E0003F46F4343F48053FE
:10C3C00043F00103ADF8243004F10802337BE08828
:10C3D000089706A98DF82B3002F046FF0546F8B9FC
:10C3E000B368EBB10146202206A808F057F942F6DF
:10C3F0003823ADF818304FF001130793B368089352
:10C400009DF82530E08843F002038DF8253004F1D3
:10C410001002737B8DF8293006A902F025FF05462E
:10C4200028460FB0F0BD70B5028C4FF6FF739A42EC
:10C430008AB0044624D005AE3246FFF711FF002132
:10C4400085B2102201A8ADF8025008F027F923891F
:10C45000ADF8043001238DF806300023ADF8083024
:10C4600001A90DF10203208CCDE90336FFF7F6FE9A
:10C4700020B9BDF80230AB4218BF0C200AB070BD25
:10C480000820FBE738B5B0F84C30142B04460D46B5
:10C4900009D126228118243008F0BAF8B4F84C30BB
:10C4A000013BA4F84C30B4F84C305A1CA4F84C2092
:10C4B00004EB4304A58438BD80F8221070470000C7
:10C4C000074B1B5C1F2B8ABF064A4FF0A04203F0AC
:10C4D0001F03D2F80405D840C04300F001007047A4
:10C4E000EDB6030000030050074B1B5C1F2B86BFFB
:10C4F00003F01F0305494FF0A041012202FA03F3A4
:10C50000C1F80C35704700BFEDB6030000030050C2
:10C51000074B1B5C1F2B86BF03F01F0305494FF021
:10C52000A041012202FA03F3C1F80835704700BFA9
:10C53000EDB603000003005008B50020FFF7E8FF48
:10C540000120FFF7E5FF0220FFF7E2FF0320BDE82F
:10C550000840FFF7DDBF08B50020FFF7C5FF012049
:10C56000FFF7C2FF0220FFF7BFFF0320BDE808402E
:10C57000FFF7BABF0A4B185C1F288ABF094B4FF060
:10C58000A04300F01F00D3F804250121814021EAD7
:10C5900002000A40C3F80805C3F80C25704700BF25
:10C5A000EDB6030000030050074B1B5C1F2B8ABF36
:10C5B000064A4FF0A04203F01F03D2F81005D840FE
:10C5C000C04300F001007047E9B6030000030050CB
:10C5D0000B2809D00C2809D0182809D019280CBF1D
:10C5E00003204FF0FF307047002070470120704754
:10C5F00002207047014B185C704700BFE9B603008A
:10C60000C20710B504460CD54FF0A0430322C3F86F
:10C610003427C3F83827C3F83C27C3F84027FFF76F
:10C620008BFFA3070AD54FF0A0430C22C3F82C2799
:10C63000C3F83027C3F86027C3F8642710BDF0B5EE
:10C6400095B01C46164608460D46FDF77BFC1A9B26
:10C650000D93CDE9086400242346082205A9284645
:10C660000A948DF82C400C94FDF789FC079B0293EB
:10C67000069B03939DF814308DF8114003F00302DC
:10C68000012A1DD1BDF81440059EC3F3C203C4F3B3
:10C6900083148DF81030A20008230EA92846FDF758
:10C6A0006EFCC6F3952608AB0093224602AB0EA99A
:10C6B000304600F0F1FB2846FDF748FC15B0F0BD10
:10C6C000022AF8D1BDF81640C3F3C203A4098DF8BD
:10C6D00010300827082C264628BF08263B4632463D
:10C6E0000EA92846FDF74BFCA41B08AB02AA314655
:10C6F0000EA8374400F034FC002CEBD1DBE700003F
:10C70000014B01221A7070474F280020704700002B
:10C7100070B50E4D06460FCD88B06C460FC495E837
:10C720000F00002E84E80F004FF00603084A094866
:10C73000009308BF00226946FDF7BEFF08B1FBF772
:10C7400067FA054B1E7008B070BD00BFF4B6030059
:10C7500001C70200882200200E28002007B5044BE4
:10C760000093044A4023FFF76AFF03B05DF804FB1F
:10C7700079C702000F28002038B50D4B0D4D002061
:10C7800018700D4804782D5DD2B21C4665B1043096
:10C79000FFF726FB08B1FBF73BFA084B1A7812B1FA
:10C7A0002378002BFBD038BD0C30FFF7CDF8F1E734
:10C7B0004F280020CC260020882200200E280020B0
:10C7C00008B50848084A0378D35C3BB10430FFF74A
:10C7D0009FFA0020BDE80840FFF79ABF0C30FFF732
:10C7E0005DF8F6E788220020CC2600200120FFF724
:10C7F0008FBF000008B5FFF7F9FF0421034800F0E0
:10C80000B9FA034B01225A7108BD00BF90AE030074
:10C810009C220020037813F0040216D003F00303D7
:10C82000012B03D0022B09D0012070470A68008831
:10C830000232C0F3831002440A60F5E70B684288B5
:10C84000023303EB92130B60EEE7104670470000D3
:10C850002DE9F04F87B000230446851C0DF1070039
:10C860000F4690468DF80730FBF7C6FB4548066833
:10C870003E60D0E90132134401339B1B824600F233
:10C880001C4600F5836900F21447AB421BD300221B
:10C89000B8F1000F70D0052363F3070264F3891227
:10C8A000DAF80010DAF808309DF807000B4003337F
:10C8B0000D444AF82320CAF80050FBF7C1FB0120C1
:10C8C00007B0BDE8F08F01213046FCF7BDFD4846BA
:10C8D000FCF7D3FD3846FCF7D0FDDAF80400DAF8AF
:10C8E00008B0029000EA0B0003300AEB800002A9B6
:10C8F000FFF790FF029B50BB0BEA03020AEB820298
:10C9000003F1020CD2680392013303EA0B0B0AEB2A
:10C910008B0B02F00302012ACDF808C0DBF80C10E3
:10C9200022D0022A16D083463846FCF7A9FD10B162
:10C93000029BCAF8043059463046FCF785FDDAE917
:10C9400001231344DAF8002001339B1A9DE70BEA18
:10C950000300C9E7BDF80E309B0903334FEA114BC2
:10C960000CEB93030293DFE7BDF80C30C3F38313A2
:10C970004FEA114B6344F5E7062363F3070264F3C0
:10C980009F528DE7202900200B4B0C48FF2210B549
:10C990009A600022C3F81824C3E90022C3F81424C3
:10C9A00083F82024FDF787FA044610B90448FDF700
:10C9B00003FC204610BD00BF202900206CAD030001
:10C9C00034B7030030B50A4C71B10A4A0A49121B48
:10C9D000D20800239A4201D1002030BD31F8235003
:10C9E000854202D00133F5E7034654F83300F4E7FB
:10C9F00088AD030090AE030074220020094B01397A
:10CA000003EBC000032909D8DFE801F00A0204069D
:10CA100004207047007970474079704700207047C4
:10CA20000220704788AD0300034BD3E90030C31ADE
:10CA300058425841704700BF202900202DE9F0439B
:10CA400087B0FFF7F1FF0646002840F0FB807E4DDF
:10CA5000C5F81804BFF34F8F6868AC680290204097
:10CA6000033005EB800002A9FFF7D4FE029B18B14A
:10CA7000D5F81824002A5FD004EA0302991C013378
:10CA800005EB8202234005EB8303D268DB68049345
:10CA900002F00303022B0392029162D1BDF80E3023
:10CAA0006A484FEA9318B8F1500FC14628BF4FF0BB
:10CAB000500969F38F1309F10801ADF80E30FDF745
:10CAC00012FA0746002800F0A880FDF73BFA03A9F8
:10CAD000002308223846FDF748FA029924EA0106A5
