:1000000000000420750300005D0300005F03000092
:1000100061030000630300006503000000000000AE
:100020000000000000000000000000006703000066
:1000300069030000000000006B0300006D03000076
:100040006F0300006F030000F50700006F0300005E
:100050006F0300006F0300006F0300006F030000D8
:100060006F0300006F0300006F0300006F030000C8
:100070006F0300006F0300006F0300006F030000B8
:100080006F0300006F0300006F0300006F030000A8
:100090006F0300006F0300006F0300006F03000098
:1000A0006F0300006F0300006F0300006F03000088
:1000B0006F0300006F03000000000000000000005C
:1000C0006F0300006F0300006F0300006F03000068
:1000D0006F0300006F0300006F0300006F03000058
:1000E0006F0300006F0300006F03000000000000BA
:1000F000000000006F030000000000006F0300001C
:1001000000000000000000000000000000000000EF
:1001100000000000000000000000000000000000DF
:1001200000000000000000000000000000000000CF
:1001300000000000000000000000000000000000BF
:1001400000000000000000000000000000000000AF
:10015000000000000000000000000000000000009F
:10016000000000000000000000000000000000008F
:10017000000000000000000000000000000000007F
:10018000000000000000000000000000000000006F
:10019000000000000000000000000000000000005F
:1001A000000000000000000000000000000000004F
:1001B000000000000000000000000000000000003F
:1001C000000000000000000000000000000000002F
:1001D000000000000000000000000000000000001F
:1001E000000000000000000000000000000000000F
:1001F00000000000000000000000000000000000FF
:10020000354936480A1A02D0072291438D463449AF
:1002100034480A1A06D00722914381F30988022242
:1002200082F3148830483149314A00F044F83148AB
:100230003149324A00F03FF831483249324A00F041
:100240003AF832483249334A00F035F832483349F7
:10025000334A00F030F833483349344A00F02BF881
:1002600033483449344A00F026F8344834490022EF
:1002700000F02CF833483449002200F027F83348C6
:100280003349091A082902DB002202604160314A21
:1002900090471F481F49884205D00268043003B4C4
:1002A000904703BCF7E700208646EC46002000217B
:1002B000294A9047FEE7884207D0521A05D00378B2
:1002C00001300B700131013AF9D17047884202D0F8
:1002D00002700130FAE770470000042000E00320BC
:1002E0000000042000000420B014000000000020E2
:1002F00018000020D0030000D003000058140000B4
:10030000B01400000000002000000020581400007D
:10031000581400005814000058140000581400002D
:10032000581400005814000058140000AF140000C6
:10033000C814000018000020180000201800002039
:10034000B4020020B4020020B4020020B402002055
:10035000B42200209D03000001120000FEE7FEE72A
:10036000FEE7FEE7FEE7FEE7FEE7FEE7FEE7FEE765
:1003700000F002B8FFF7FCBF0F484FF007018843B9
:1003800085460E4880470E48016841F470010160BF
:10039000BFF34F8FBFF36F8FFFF732BF09480A4992
:1003A0000A4A884207D0521A05D0037801300B70F0
:1003B0000131013AF9D1704700000420A112000078
:1003C00088ED00E05814000000000020000000202C
:1003D000074B1B5C1F2B86BF03F01F0305494FF023
:1003E000A041012202FA03F3C1F80835704700BFAB
:1003F000581400000003005008B50020FFF7E8FF84
:100400000120FFF7E5FF0220FFF7E2FF0320BDE830
:100410000840FFF7DDBFC20710B504460CD54FF00A
:10042000A0430322C3F83427C3F83827C3F83C2776
:10043000C3F84027FFF7E0FFA3070AD54FF0A0431A
:100440000C22C3F82C27C3F83027C3F86027C3F861
:10045000642710BD1FB50021039001AA44F20100DA
:10046000CDE9011100F004F805B05DF804FB0000CF
:1004700072B6BFF34F8F0549054BCA6802F4E062BC
:100480001343CB60BFF34F8F00BFFDE700ED00E0EB
:100490000400FA0549B152B1531E1A4007D18260D7
:1004A00001608380C260104670470E2070470920AB
:1004B000704710B58468C2688388121B934208D3C2
:1004C000C26813400268D154C3680133C36000207E
:1004D00010BD0420FCE78268C3689A420AD0826893
:1004E000838813400268D35C0B7083680133836098
:1004F00000207047052070470648074A03780749DF
:10050000D35C012213B1043000F004BE0C3000F0C3
:10051000ABBB00BF000000205800002040000020BE
:100520000648074A03780749D35C012213B1043017
:1005300000F09CBD0C3000F041BB00BF000000206B
:10054000580000204100002037B50578012D05D066
:10055000002D32D0022D25D003B030BD037A13B95F
:10056000FFF7CAFFF8E743681A4C19782046FFF7EF
:10057000A0FF80B18DF800500190174B68461B68B2
:100580009847A168E368A2885B1A9A42E8D2134BA5
:1005900001221A70E0E7A268E3689A42F1D08DF870
:1005A0000000EAE7C3688DF800500193FFF7A4FF4D
:1005B000094B68461B689847CEE709490948FFF789
:1005C0008AFF10B9FFF7ACFFC6E703238DF80030B0
:1005D000EEE700BF1C000020180000202C000020C7
:1005E0004100002030000020F0B51F46234B89B0A9
:1005F00006461A600C4600293DD08A8820480968C2
:10060000FFF748FF002834D1A289A1681D48FFF7F1
:1006100041FF00282DD11C4D0FCD6C460FC495E82D
:100620000F0084E80F0073690693337C174A18485B
:100630008DF81C70003318BF01238DF81430737CC3
:10064000002B14BF0E2300238DF81530F36802939E
:10065000B36803933368019369467368009300F0AD
:100660008DF830B90B4B18703368013301D0FFF7A8
:1006700043FF09B0F0BD0720FBE700BF18000020D2
:100680001C000020300000205C1400004905000020
:10069000000000202C00002010B501460E48FFF796
:1006A00008FF0446A8B90D480D4A0378D35C63B12E
:1006B000043000F023FD60B90A490748FFF70BFF3B
:1006C00038B9BDE81040FFF72BBF0C3000F0C0FA7E
:1006D000F1E7204610BD00BF3000002000000020E0
:1006E000580000204100002072B6024A136801330E
:1006F0001360704744000020034A1368013B1360F5
:1007000003B962B6704700BF44000020FFF7ECBF9A
:10071000FFF7F2BF1FB503788DF8003043680193EF
:1007200083688DF80830C3680393054A054B684613
:1007300053F8213052F82110984705B05DF804FBBA
:1007400048000020500000201FB503788DF80030CD
:100750004368019383688DF80830C3680393054AA2
:10076000054B684653F8213052F82110984705B0E0
:100770005DF804FB4800002050000020F0B5184B45
:100780000778DFF86CE043F82720164B16460A6915
:1007900043F827204B7F0EF807300C4684460FCCD9
:1007A00089B06D460FC594E80F0085E80F001EF86C
:1007B0000730049753B1002E0B4A694608BF3246F2
:1007C0000CF1040000F070FB09B0F0BD002E074AE8
:1007D000694608BF32460CF10C0000F01BF9F3E744
:1007E00050000020480000201507000049070000C5
:1007F00058000020014B1B68184700BF5C00002018
:1008000038B50B4B98420D4601D0002038BD002072
:10081000FFF77CFF074B1C7914B901221D601A7188
:100820000020FFF775FF002CEFD01120EEE700BF8E
:10083000002000405C0000200023435082B0435859
:100840000193019B02B070470A4610B54FF48E71B8
:10085000FFF7F2FF136A9168C95C136A01331362F0
:10086000C0F81C1510BD024608B54FF4927100681F
:10087000FFF7E2FF4FF484711068FFF7DDFF1368A4
:1008800001221A6008BD8B690A4610B54FF48471C5
:1008900023B9FFF7D1FFD0F8183510BDFFF7CCFF13
:1008A000536AD168D0F81805C854536A01335362AB
:1008B000F3E700001FB501238DF80030044BCDE9AC
:1008C0000110D3E900126846904705B05DF804FBBB
:1008D0006400002030B54D4AD2F8043313F4007F91
:1008E00085B015464FD0D2F82431002B4BD04FF4B1
:1008F00092711046FFF7A0FF4FF40173C2F808335E
:10090000434B93F8291009B9012151603F49022254
:100910008DF80020D1F88024C1F8802403929A69D0
:100920000292DA6801920022C3E906226846D3E9FE
:10093000001290473548D0F81C315BB134494A6900
:100940000B6A9A420A464BD991F82830002B47D1BE
:10095000FFF77AFF2D4AD2F8443193B14FF4A271D8
:100960001046FFF769FF2A4B93F8291009B10121BE
:1009700011609A692AB100229A61586AD968FFF712
:1009800099FF05B030BDD5F804335B07D2D5D5F853
:100990000831002BCED01E4C1C482146FFF773FFB8
:1009A000636AA2699A422346C4D1E269E1684AB106
:1009B0002369E3600023606AA261E3616362FFF779
:1009C00079FFB7E794F829200AB901226A600F4A33
:1009D0004FF40170C2F8080300229A61586AEEE7EA
:1009E0004FF48E710948FFF727FF5369002BB1D0F0
:1009F00051690291002391688DF800300191536193
:100A00006846D2E900139847A4E700BF00200040E1
:100A1000640000202DE9F843624F047991462C22AE
:100A200002FB0472064692F82A200D46002A40F086
:100A3000B3805D490068FFF7E3FE8046002840F080
:100A4000AE8029684A1C10D01F2987BF01F01F0300
:100A5000564A0B464FF0A0420120984003F5E07340
:100A6000C2F80805032042F823006868431C0DD033
:100A70001F288BBF00F01F0303464C4A4FF0A042D3
:100A800003F5E0734FF0000C42F823C03368AA6905
:100A900095F814C0C3F824256A7DBCF1010F4CEA17
:100AA0000202C3F86C25C3F81405C3F80C152BD14A
:100AB000A968481C0DD01F298BBF01F01F020A46F0
:100AC0003A484FF0A04002F5E0724FF0000C40F8B9
:100AD00022C0E868421C13D01F2887BF00F01F0CFB
:100AE000324A84464FF0A0424FF0010E0EFA0CFE3F
:100AF0000CF5E07CC2F808E54FF0030E42F82CE05C
:100B0000C3F80805C3F810152C236343FA18C2F87C
:100B100004902A69FA50B9F1000F2AD04FF48E716F
:100B200030682D7FFFF788FE30684FF4A271FFF721
:100B300083FE32681E4BC2F80433120B51B20029F7
:100B4000A8BF01F160404FEA4513BABF194802F04F
:100B50000F0500F56140DBB2B4BF435580F80033A8
:100B600002F01F02012303FA02F24909124B43F873
:100B7000212033680422C3F800252C2303FB0473CF
:100B80000022C3E9062283F829205A61012283F852
:100B90002A204046BDE8F8834FF00808F9E74FF0F7
:100BA0001108F6E764000020D5080000000300509B
:100BB0008000020014ED00E000E100E02DE9F84FB4
:100BC000224F06794FF02C0909FB067480466569AF
:100BD000002D38D16261A16025624FF48E710068EA
:100BE00084F82850FFF728FED8F80000012383601E
:100BF0002146FFF729FE6368A1469BB9D8F800A0FB
:100C0000D4F814B0236A9B4512D8D8F80020D2F843
:100C10001C31002BFBD00123D3602C2303FB067374
:100C200000225A612846BDE8F88F94F8283043B96D
:100C3000DAF81C31002BF8D049465046FFF704FE85
:100C4000E0E70F25E9E71125ECE700BF640000208D
:100C50000379044A2C2101FB03235869003018BF93
:100C600001207047640000202DE9F843394E0579D2
:100C70002C2303FB056307465C6824B103684FF42B
:100C80000170C3F808032C2303FB0563986950B176
:100C9000D86900283ED024B13B684FF40172C3F8F4
:100CA0000423112433E09A61D9605862D8612C235F
:100CB00003FB056393F829301BB910B93846FFF7D9
:100CC000D2FD4FF02C0909FB05683868D8F80430CC
:100CD000002B34D14FF4A271FFF7AEFDC146386846
:100CE000D0F82431D0F80821D0F84441B2B90CB979
:100CF000002BF4D02C2202FB05650022AA6123BB45
:100D00002CBB95F829103B680122B1B11A6020462E
:100D1000BDE8F8831961DA610120C8E7002BE9D149
:100D2000002CE7D14946FFF7AEFDD8F82430D8F8BB
:100D300018209A42D3D82346DCE75A60E7E74FF4FD
:100D40000173C0F804330024E1E70324DFE70F2434
:100D5000DDE700BF640000200023435082B0435809
:100D60000193019B02B070471FB501238DF800303D
:100D7000044BCDE90110D3E900126846904705B055
:100D80005DF804FB900000207FB5454AD2F824614D
:100D9000002E63D010464FF49271FFF7DDFF02235F
:100DA0008DF80030D2F88034C2F880340393D2F842
:100DB0003C3502933B4BDA6801920022C3E90622DC
:100DC0006846D3E900129047354AD2F844317BB1E6
:100DD0004FF4A2711046FFF7BFFF324B996939B14A
:100DE0000021C3E90611D968D2F83C05FFF7BCFF22
:100DF0002B4AD2F82031B3B14FF490711046FFF76F
:100E0000ABFF0123D360274B596961B1D2F84C1570
:100E10000291002299688DF8002001915A6168467C
:100E2000D3E9001290471E4AD2F85831A3B14FF4CB
:100E3000AC711046FFF790FF1A4B596961B1D2F8B7
:100E40004C150291002299688DF8002001915A6199
:100E50006846D3E90012904704B070BDD2F8103153
:100E6000002BB1D04FF488711046FFF775FF0D4B82
:100E7000D2F83C0599698842A6D1DC69D96864B189
:100E8000D2F8005225F02005C2F800521A699C6180
:100E9000DA60DE61FFF768FF96E79C61FAE700BF62
:100EA00000200040900000202DE9F843694F0679AA
:100EB0009146242202FB0672044692F820200D4639
:100EC000002A40F0C08064490068FFF799FC804622
:100ED000002840F0BB802868421C10D01F2887BF24
:100EE00000F01F035D4A03464FF0A04201219940E4
:100EF00003F5E073C2F80815032142F8231069686E
:100F00004B1C0DD01F298BBF01F01F030B46534A0A
:100F10004FF0A04203F5E0734FF0000C42F823C0FD
:100F20002368AA6995F814C0C3F824256A7DBCF12A
:100F3000010F4CEA0202C3F86C25C3F80C05C3F894
:100F400014152BD1A968481C0DD01F298BBF01F0A7
:100F50001F020A4641484FF0A04002F5E0724FF0F0
:100F6000000C40F822C0E868421C13D01F2887BF3D
:100F700000F01F0C394A84464FF0A0424FF0010E9A
:100F80000EFA0CFE0CF5E07CC2F808E54FF0030EFB
:100F900042F82CE0C3F80805C3F810152423734366
:100FA000FA18C2F804902A69FA50B9F1000F39D042
:100FB0004FF4887120682D7FFFF7CEFE4FF49071BB
:100FC0002068FFF7C9FE4FF492712068FFF7C4FE56
:100FD0004FF4A2712068FFF7BFFE20684FF4AC7198
:100FE000FFF7BAFE22681E4BC2F80433120B51B24F
:100FF0000029A8BF01F160404FEA4513BABF194864
:1010000002F00F0500F56140DBB2B4BF435580F834
:10101000003302F01F02012303FA02F24909124BC6
:1010200043F8212023680822C3F80025242303FB6A
:1010300006730022C3E906225A61012283F82020A8
:101040004046BDE8F8834FF00808F9E74FF0110873
:10105000F6E700BF90000020890D0000000300505B
:101060001003420014ED00E000E100E001F06043F5
:10107000B3F1005F2DE9F041074638D11E4B0679E8
:10108000242505FB063598466C69002C31D16A6130
:10109000A96000684FF49071FFF75EFE4FF4AC71E9
:1010A0003868FFF759FE3B686A69A968C3F84415B8
:1010B000C3F8482501229A606A68AAB9D3F82021AA
:1010C000D3F858411AB9002CF8D00F2407E0002CAF
:1010D000FBD10122DA60D3F85821002AFBD0242367
:1010E00003FB0686002373612046BDE8F0811024CF
:1010F000FAE71124F8E700BF900000200379044AC2
:10110000242101FB03235869003018BF01207047D8
:1011100090000020F8B501F06043B3F1005F044691
:101120000F465ED10379304D242101FB03514868FD
:1011300020B121684FF40476C1F80863242101FB33
:1011400003539E6956B1D969002939D020B123686B
:101150004FF40472C3F80423112030E09A61DF6079
:10116000DE614FF488712068FFF7F6FD4FF4A2713D
:101170002068FFF7F1FD2368C3F83475C3F83825FC
:1011800016BB01221A602179242202FB0152526807
:101190000ABBD3F81041D3F84421D3F824011443F7
:1011A00002D10028F5D02246242303FB0155002359
:1011B000984218BF03209A42AB6118BF0F20F8BDB8
:1011C0001F61DA610126CCE7D3F8002242F0200249
:1011D000C3F80022D7E74FF40472C3F804230020B9
:1011E000EDE71020EBE700BF900000200378022B12
:1011F00002D14068FFF72EB9012BFAD070470000EA
:10120000F0B5194D8BB00120FFF705F90FCD04ACF7
:101210000FC495E80300154B154A00934FF48073F3
:1012200084E80300CDE902230193124A07236946AB
:1012300004A8FFF7D9F908B1FFF70CF90E4D0F4FCD
:1012400045F001050024E65D3046FFF725FA002849
:10125000FAD10A264FF47A40A847013EFAD1013468
:101260000F2CF0D1EEE700BF7C140000B40000208A
:10127000B4010020ED110000A0140000A61400002D
:10128000054B1B68082B01BF044B1868B0FA80F0AF
:10129000400918BF002070473001001034010010D1
:1012A00008B54FF080430022C3F80C21C3F8102189
:1012B000C3F838254FF0805203F54043D2F80414A8
:1012C000C3F82015D2F80814C3F82415D2F80C146A
:1012D000C3F82815D2F81014C3F82C15D2F814143A
:1012E000C3F83015D2F81814C3F83415D2F81C140A
:1012F000C3F84015D2F82014C3F84415D2F82414CA
:10130000C3F84815D2F82814C3F84C15D2F82C1499
:10131000C3F85015D2F83014C3F85415D2F8341469
:10132000C3F86015D2F83814C3F86415D2F83C1429
:10133000C3F86815D2F84014C3F86C15D2F84424E9
:10134000C3F87025FFF79CFF10B1384B384A1A607C
:10135000FFF796FF18B1374BFB22C3F81825FFF7AC
:101360008FFF48B13449354B0A681B6822F00F02E1
:1013700003F00F0313430B60FFF782FF18B1304BEC
:101380004FF400721A604FF08043D3F80024D20764
:1013900044BF6FF00102C3F800242A4AD2F8883013
:1013A00043F47003C2F88830BFF34F8FBFF36F8FE1
:1013B0004FF01023D3F80022002A03DBD3F80432C5
:1013C000002B2FDA204B0122C3F80425D3F8002488
:1013D000002AFBD04FF010221221C2F80012D3F8DD
:1013E0000024002AFBD04FF010231222C3F804225D
:1013F000154B1A46D3F800140029FBD00021C3F87E
:101400000415D2F80034002BFBD0BFF34F8F0D49E9
:101410000E4BCA6802F4E0621343CB60BFF34F8FF8
:1014200000BFFDE70A4B0B4A1A6008BD8C5600400E
:101430004881030000F00040E40E00405802001014
:101440004096024000ED00E000E001400400FA0593
:08145000140000200090D003FD
:101458000D0E0F10FFFFFFFFFFFFFFFFFFFFFFFF56
:10146800FFFFFFFF00000000000000000000D601A1
:10147800060100000800000006000000050000004A
:10148800070000000100000000E0D7010000000094
:1014980000000000000000000338FDD870470D0A66
:0714A800313131310D0A0062
:1014B000000000000020004000000000002000406C
:0814C000000000000090D003C1
:040000030000037581
:00000001FF
